:100000000C945C000C9479000C9479000C947900A9
:100010000C9479000C9479000C9479000C9479007C
:100020000C9479000C9479000C9479000C9479006C
:100030000C9479000C9479000C9479000C9479005C
:100040000C9471010C9479000C9479000C94790053
:100050000C9479000C9479000C9479000C9479003C
:100060000C9479000C947900000000080002010053
:100070000003040700000000000000000102040863
:100080001020408001020408102001020408102002
:10009000040404040404040402020202020203032E
:1000A0000303030300000000250028002B000000CC
:1000B0000000240027002A0011241FBECFEFD8E043
:1000C000DEBFCDBF11E0A0E0B1E0EAE9F6E002C09A
:1000D00005900D92A030B107D9F721E0A0E0B1E082
:1000E00001C01D92A930B207E1F70E9462010C9491
:1000F0004B030C94000061E084E00E94140361E073
:1001000087E00E9414036FEF70E086E00C945302C6
:10011000CF93DF93EA018130910511F561307105CC
:1001200031F461E084E00E94140360E008C06F3F96
:100130007F4F59F460E084E00E94140361E087E09F
:100140000E941403BE0186E02EC060E084E00E949D
:10015000140360E087E00E94140360E070E0F3CFD6
:10016000892B29F56130710531F461E082E00E944C
:10017000140360E008C06F3F7F4F51F460E082E0FD
:100180000E94140361E083E00E941403BE010AC0D0
:1001900060E082E00E94140360E083E00E941403A8
:1001A00060E070E085E0DF91CF910C945302DF9125
:1001B000CF9108958130910511F40C947B00892B27
:1001C00069F461E082E00E94140361E083E00E9430
:1001D00014036FEF70E085E00C945302089561E022
:1001E0008DE00E94DB0261E087E00E94DB0261E0BB
:1001F00084E00E94DB0261E086E00E94DB0261E0B5
:1002000083E00E94DB0261E082E00E94DB0261E0A9
:1002100085E00C94DB02CF93DF93C4E1D0E0AE0124
:1002200061E070E080E090E00E948800AE0161E053
:1002300070E081E090E00E9488002A9664EF71E00F
:1002400080E090E00E94DE01CA35D10541F70E94AE
:100250007B0080E090E00E94DA0068EE73E080E0CE
:1002600090E00E94DE01C4E1D0E0AE016FEF7FEFCD
:1002700080E090E00E948800AE016FEF7FEF81E0A8
:1002800090E00E94880064EF71E080E090E00E94BE
:10029000DE012A96CA35D10541F70E947B0080E035
:1002A00090E00E94DA0068EE73E080E090E00E9447
:1002B000DE0161E070E080E090E0DF91CF910C948E
:1002C000DE0108950E9418020E9461010E94EF0061
:1002D000C0E0D0E00E940B012097E1F30E940000F3
:1002E000F9CF1F920F920FB60F9211242F933F93C5
:1002F0008F939F93AF93BF938091010190910201DF
:10030000A0910301B09104013091000123E0230F7B
:100310002D3720F40196A11DB11D05C026E8230F3D
:100320000296A11DB11D20930001809301019093BD
:100330000201A0930301B093040180910501909103
:100340000601A0910701B09108010196A11DB11D00
:100350008093050190930601A0930701B0930801D3
:10036000BF91AF919F918F913F912F910F900FBEB1
:100370000F901F9018953FB7F894809105019091C8
:100380000601A0910701B091080126B5A89B05C000
:100390002F3F19F00196A11DB11D3FBF6627782F91
:1003A000892F9A2F620F711D811D911D42E0660FEA
:1003B000771F881F991F4A95D1F708958F929F92B2
:1003C000AF92BF92CF92DF92EF92FF926B017C01CE
:1003D0000E94BB014B015C01C114D104E104F10492
:1003E000F1F00E944A030E94BB01681979098A0949
:1003F0009B09683E73408105910570F321E0C21AA4
:10040000D108E108F10888EE880E83E0981EA11C4F
:10041000B11CC114D104E104F10429F7DDCFFF9030
:10042000EF90DF90CF90BF90AF909F908F90089506
:10043000789484B5826084BD84B5816084BD85B5BF
:10044000826085BD85B5816085BDEEE6F0E0808186
:1004500081608083E1E8F0E01082808182608083A7
:10046000808181608083E0E8F0E08081816080832A
:10047000E1EBF0E0808184608083E0EBF0E080815C
:1004800081608083EAE7F0E08081846080838081FE
:1004900082608083808181608083808180688083A6
:1004A0001092C10008951F93CF93DF93182FEB0193
:1004B00061E00E94DB02209711F460E004C0CF3FAE
:1004C000D10539F461E0812FDF91CF911F910C9418
:1004D0001403E12FF0E0E859FF4FE491E330F9F025
:1004E00048F4E130B9F0E230A1F584B5806284BD12
:1004F000C8BD34C0E730E9F0E83019F1E43049F51F
:1005000080918000806280938000D0938B00C093A4
:100510008A0024C084B5806884BDC7BD1FC0809197
:100520008000806880938000D0938900C093880009
:1005300015C08091B00080688093B000C093B30074
:100540000DC08091B00080628093B000C093B40071
:1005500005C0C038D1050CF0B5CFAFCFDF91CF913A
:100560001F910895833081F028F4813099F0823012
:10057000A1F008958730A9F08830B9F08430D1F423
:10058000809180008F7D03C0809180008F77809361
:100590008000089584B58F7702C084B58F7D84BDB7
:1005A00008958091B0008F7703C08091B0008F7D57
:1005B0008093B0000895CF93DF9390E0FC01E4585E
:1005C000FF4F2491FC01E057FF4F8491882349F1AC
:1005D00090E0880F991FFC01E255FF4FA591B4915F
:1005E0008C559F4FFC01C591D4919FB7611108C0F4
:1005F000F8948C91209582238C93888182230AC061
:10060000623051F4F8948C91322F309583238C937F
:100610008881822B888304C0F8948C91822B8C93E0
:100620009FBFDF91CF9108950F931F93CF93DF93D7
:100630001F92CDB7DEB7282F30E0F901E859FF4F00
:100640008491F901E458FF4F1491F901E057FF4FED
:1006500004910023C9F0882321F069830E94B2022B
:100660006981E02FF0E0EE0FFF1FEC55FF4FA591E1
:10067000B4919FB7F8948C91611103C010958123B8
:1006800001C0812B8C939FBF0F90DF91CF911F9161
:0A0690000F9108950895F894FFCF2C
:00000001FF
