:1000000015C1000044C1000042C1000040C1000011
:100010003EC100003CC100003AC1000038C10000F0
:1000200036C1000034C1000032C1000030C1000000
:100030002EC100002CC100002AC1000028C1000010
:1000400026C1000024C1000022C1000020C1000020
:100050001EC100001CC100001AC100000C940C0E4F
:1000600016C1000014C1000012C1000010C1000040
:100070000EC100000CC100000AC1000008C1000050
:1000800006C1000004C1000002C1000000C1000060
:100090000C942E0D0C94640DFAC00000F8C0000002
:1000A000F6C00000F4C00000F2C00000F0C0000084
:1000B000EEC00000ECC00000EAC00000E8C0000094
:1000C000E6C00000E4C00000E2C00000E0C00000A4
:1000D000DEC00000DCC00000DAC00000D8C00000B4
:1000E000D6C00000360F390F280F2C0F320F700FBB
:1000F0003D0F410F470F4B0F4F0F550F590F5D0F1E
:10010000700F630F670F6B0F00000A0B02090C0DD5
:100110000E080703040100000000000000000000BA
:1001200000000000000000000000000000000000CF
:10013000000000001211100000000000000000008C
:1001400000000000000000000000000000000102AC
:1001500010202008081020401020408002010201D9
:100160000804020101020408102040808040201091
:1001700008040201800402018040201008040201EA
:100180000804020101020408102040800102040852
:10019000102040800505050507050808080802022B
:1001A00002020A0A08080404040401010101010111
:1001B00001010303030303030303040707070C0CF4
:1001C0000C0C0C0C0C0C02020202060606060606BB
:1001D00006060B0B0B0B0B0B0B0B00002000230078
:1001E000260029002C002F0032000001000003012E
:1001F0000601090100002200250028002B002E0026
:100200003100340002010000050108010B0100006B
:100210002100240027002A002D00300033000101B6
:100220000000040107010A01FD0A960D11241FBEFA
:10023000CFEFD1E2DEBFCDBF00E00CBF13E0A0E006
:10024000B2E0E0E4F5E200E00BBF02C007900D92DF
:10025000A83DB107D9F729E0A8EDB3E001C01D9290
:10026000A135B207E1F712E0CCE2D2E000E006C02F
:1002700022970109FE010BBF0E945C10C832D10712
:1002800080E00807A9F70E94020E0C949E12B8CED7
:10029000FC01DB0182818C93838111968C931197F1
:1002A000848112968C931297858113968C93139761
:1002B000868114968C931497878115968C93159745
:1002C000808516968C931697818517968C9388E077
:1002D00090E00895FC01DB014C9150E060E070E09B
:1002E000428353836483758311968C911197582BA5
:1002F000428353836483758312968C911297682B83
:10030000428353836483758313968C911397782B60
:10031000428353836483758314964C91149750E001
:1003200060E070E0468357836087718715968C91F3
:100330001597582B468357836087718716968C9143
:100340001697682B468357836087718717968C9121
:10035000782B468357836087718788E090E0089503
:1003600086E092E0089584E192E008956F927F9292
:100370008F929F92AF92BF92CF92DF92EF92FF92B5
:100380000F931F93CF93DF93FC01DB018C9190E0DF
:100390009383828311962C911197922B938382835E
:1003A00012964D915D916D917C9115975D0186E05E
:1003B000A80EB11C8A019B010A5F1F4F2F4F3F4FB0
:1003C0006501CA1ADB0AE12CF12CC016D106E2063F
:1003D000F30640F4E501F9905E01CE010297EC01CD
:1003E000F882EECFED01C40FD51F1D82CD01059619
:1003F00095838483ED01C40FD51FCE80DF80E88410
:10040000F984465F5F4F3D01640E751E8A01222705
:1004100017FD2095322F0C0D1D1D2E1D3F1D430174
:100420008A1A9B0AA12CB12C80169106A206B3064B
:1004300040F4E30169913E01CE010297EC0168832B
:10044000EECFC40ED51E9D012C0D3D1DC901019797
:10045000EC011882415051094A0F5B1F57834683B4
:10046000E901088119812A813B81D4E0CD0ED11C9C
:100470003D016C0C7D1CA601662757FD6095762F0B
:10048000400F511F621F731F43018A1A9B0AA12C40
:10049000B12C84169506A606B70640F4E301F99040
:1004A0003E01CE010297EC01F882EECF0C0D1D1D2E
:1004B0009D01200F311FC9010197EC011882D1E085
:1004C000CD1AD108CA0EDB1ED186C086D90111967D
:1004D0008C91119712964C91129750E060E070E069
:1004E000BA0155274427582B8C91482B13968C9191
:1004F000782B4287538764877587C8010496DF91FC
:10050000CF911F910F91FF90EF90DF90CF90BF9010
:10051000AF909F908F907F906F90089585E392E0C9
:1005200008958EE492E00895AF92BF92CF92DF9249
:10053000EF92FF921F93CF93DF939C01FB01808189
:10054000D90112968C9381819281A381B4815B0140
:10055000C5E0AC0EB11CAC01BD014B5F5F4F6F4FEE
:100560007F4F6501CE1ADF0AE12CF12CC416D506A7
:10057000E606F70650F4E501D9905E017E01D2E06F
:10058000ED1AF108E701D882ECCFEF01C80FD91FAF
:100590001C823496E901FC83EB830596DF91CF91B1
:1005A0001F91FF90EF90DF90CF90BF90AF90089594
:1005B0008FE692E0089582E892E0089589E593E05D
:1005C000089583EA92E00895AF92BF92CF92DF92AE
:1005D000EF92FF921F93CF93DF935C019B01FB018E
:1005E00081919191A191B191AC01BD014C5F5F4F9F
:1005F0006F4F7F4F6F01C21AD30AE12CF12CC41642
:10060000D506E606F70640F4D1907F0112E0E11A24
:10061000F108E701D882EECFF901E80FF91F138244
:100620002D5F3F4FF501338322830496DF91CF91F5
:100630001F91FF90EF90DF90CF90BF90AF90089503
:1006400084EC92E0089584ED92E008950F931F9357
:10065000CF93DF93EC018C010A5F1F4FC801B4DF19
:10066000EA85FB85C801DF91CF911F910F91199405
:10067000FC0184859585089584EC92E0089584EDCD
:1006800092E008958E579B4FFC0180810895AF92B0
:10069000BF92CF92DF92EF92FF920F931F93CF936F
:1006A000DF93EC017B018A81DB018C938B811196B6
:1006B0008C93EC81FD81DF010D900020E9F7CD01E5
:1006C00001976C01CE1ADF0AC601A0E0B0E0FB0181
:1006D00082839383A483B5836C817D81A601C70146
:1006E00006960E946711EE81FF81DF010D900020C8
:1006F000E9F7CD0101975C01AE1ABF0AF701EC0DD5
:10070000FD1D850120E030E00683178320873187B7
:100710009AE0C90ED11C6E817F81A501C7018C0DA5
:100720009D1D0E946711CA0CDB1CE885F985DF015D
:100730000D900020E9F7CD0101975C01AE1ABF0AC8
:10074000F701EC0DFD1D850120E030E000831183F1
:100750002283338394E0C90ED11C68857985A50175
:10076000C7018C0D9D1D0E946711AC0CBD1C3A8504
:100770002B859C858D85F701EA0DFB1D3083218338
:1007800092838383C5010496DF91CF911F910F91CE
:10079000FF90EF90DF90CF90BF90AF9008950F93B0
:1007A0001F93CF93DF93DC01FB0112968C9112977C
:1007B000808313968D919C911497EC0109900020F1
:1007C000E9F72197C81BD90B8E0120E030E00183A7
:1007D00012832383348313966D917C911497AE0119
:1007E000CF0105960E946711CE010596DF91CF914A
:1007F0001F910F910895BF92CF92DF92EF92FF92D7
:100800000F931F93CF93DF93EC017B018A81DB0170
:100810008C9311961C92119712961C921297139614
:100820001C92FB01379640E024E030E05A81C90178
:1008300004964517E0F4AF81B88524E0429FA00DEF
:10084000B11D11246C9111965C91119712963C91F7
:10085000129713962C91DF0113976C9311965C936A
:1008600011963C9320839C014F5F3496DFCF4985DE
:10087000F701E20FF31F408311821282138220E0FE
:100880003985F701E80FF91F04962317B0F4AE85F8
:10089000BF8534E0239FA00DB11D11246C911196EA
:1008A0005C91119712964C91129713963C9160832C
:1008B0005183428333832F5FE3CF288920831182C2
:1008C00012821382B12C2889B21698F54B2D50E074
:1008D000440F551FEB89FC89E40FF51F0190F0814F
:1008E000E02DDF010D900020E9F79D012150310935
:1008F0006901CE1ADF0AF701E80FF91F860120E02F
:1009000030E000831183228333838C010C5F1F4FFF
:10091000EB89FC89E40FF51F60817181A601C70195
:10092000800F911F0E946711C601800F911FB39421
:10093000CACFDF91CF911F910F91FF90EF90DF9081
:10094000CF90BF9008950F931F93CF93DF93DC0157
:100950001296ED91FC911397EF0109900020E9F7B1
:100960002197CE1BDF0B8E0120E030E0FB010193CD
:1009700011932193319312966D917C911397AE014F
:10098000CF010E946711CE010496DF91CF911F9194
:100990000F9108954F925F927F928F929F92AF92A4
:1009A000BF92CF92DF92EF92FF920F931F93CF935C
:1009B000DF93EC018B01DB01FC908A818F1550F4F1
:1009C000B4E0FB9EB00111248F8198850E948310B2
:1009D00098878F83FA82F8013796F12C44E050E033
:1009E0009E012D5F3F4F8A81BA016C5F7F4F6B0183
:1009F000F81660F5408150E060E070E0742F6627E3
:100A000055274427DF0113978C91482B11968C9121
:100A1000582B11968C91682B4B835C836D837E835E
:100A2000A6016F81788584E0F89E600D711D112408
:100A3000D9018D909D90AD90BC90DB018D929D92DF
:100A4000AD92BC921397F3943496CDCFF801E40F96
:100A5000F51FF08089858F1550F484E0F89EB00171
:100A600011248E859F850E9483109F878E87960113
:100A7000F98680E0FE013A969985D801A20FB31F4E
:100A8000A9014C5F5F4F6A01891748F511969C9147
:100A9000119712964C91129750E060E070E0BA0105
:100AA00055274427592B9C91492B13969C91792BC0
:100AB0004A875B876C877D879601AE85BF8594E00A
:100AC000899FA00DB11D11244081518162817381E4
:100AD0004D935D936D937C9313978F5FCDCFFC9077
:100AE00088898F1550F46F2D70E0660F771F8B8902
:100AF0009C890E9483109C8B8B8BC601F88A712C79
:100B00002E0151E1450E511C2889721608F044C08F
:100B1000F801E80FF91FC080D180E280F3800496CD
:100B2000F801E80FF91FAC01662757FD6095762F95
:100B30004C0D5D1D6E1D7F1D9F01201B310B49015A
:100B4000A12CB12C84169506A606B70638F4B190F0
:100B50009F0122503109D901BC92EECFC80ED91E97
:100B6000F801EC0DFD1D319710829C0121503109D7
:100B7000200F311F3A8B298BC6013B892C89E32F2B
:100B8000F22FE70DF11DE70DF11DD2012D913C91E2
:100B9000318320837394B8CFDF91CF911F910F9150
:100BA000FF90EF90DF90CF90BF90AF909F908F908D
:100BB0007F905F904F900895CF93DF93EC018DE08D
:100BC0000E94DF0F61E0681B8DE00E94AA0F6A811E
:100BD0007B8180EF93E0DF91CF910C947011AF9205
:100BE000BF92CF92DF92EF92FF920F931F93CF931A
:100BF000DF9300D01F921F92CDB7DEB78C016B013F
:100C0000643671053CF0FC01EE57FB4F8081882370
:100C100009F479C0DA01ED91FC910190F081E02DA9
:100C2000B801655E7D4FCA0119957C015801BCEE83
:100C3000AB1ABDEFBB0A2FEFF50120832EEF3196E3
:100C400020833196808331969083890F80953196E9
:100C500080833196C0823196D08285E090E020E09A
:100C600030E0A701495F5F4F8417950750F4F80102
:100C7000E80FF91FEC5EFD4F6081260F311D0196D4
:100C8000F3CFF8E0EF0EF11C400F511FFA01EC5EBC
:100C9000FD4F2095208321E0E21622E0F206C8F401
:100CA0006501C6018A199B098E159F0584F4D80138
:100CB00012968D919C911397F60161916F01DC0161
:100CC000ED91FC910190F081E02D1995EACFC701DB
:100CD0001CC081E993E09A83898383E08B8385EF4D
:100CE00092E09D838C83D801ED91FC910190F0817D
:100CF000E02DAE014F5F5F4F67E070E0C8011995CE
:100D00008FEF9FEF02C080E090E00F900F900F9068
:100D10000F900F90DF91CF911F910F91FF90EF9067
:100D2000DF90CF90BF90AF900895CF93DF93AB014A
:100D3000EC01AE81BF81ED91FC9111976C817D81B9
:100D40000190F081E02DCD01DF91CF911994409178
:100D5000060450910704609108047091090426E08C
:100D6000809104049091050419D610927B0810928A
:100D70007A0810927D0810927C08109281081092D7
:100D8000800810927F0810927E08E8E4F8E080E086
:100D900090E021913191232B81F4FC01EE0FFF1F94
:100DA000E85BF74F22EE33E0318320838C599F4F6D
:100DB0009093E5038093E40304C001968931910583
:100DC00041F7E6E1F8E080E090E021913191232BBA
:100DD000B1F4FC01EE0FFF1FEA5EF74F28ED33E0A0
:100DE0003183208383589F4F9093DD038093DC03EE
:100DF00082E094E09093DF038093DE0304C00196C9
:100E00008931910511F78EE293E09093FD03809371
:100E1000FC0387E393E0909301048093000461E076
:100E20008DE00C94710F0F931F93CF93DF93CDB789
:100E3000DEB72A970FB6F894DEBF0FBECDBF8C0188
:100E400089E793E09A8389831B821C821D821E821C
:100E50001F82188619861A86D801ED91FC9101909F
:100E6000F081E02DAE014F5F5F4F6AE070E0C80196
:100E700019951CD7F80160877187828793872A9616
:100E80000FB6F894DEBF0FBECDBFDF91CF911F919B
:100E90000F9108954F925F926F927F928F929F92DF
:100EA000AF92BF92CF92DF92EF92FF920F931F9378
:100EB000CF93DF93CDB7DEB72E970FB6F894DEBF92
:100EC0000FBECDBF8C0185E893E09A8389831C8295
:100ED0001B8287E393E09E838D8398878F839A8715
:100EE00089871B861C861D861E86580182E3A80EF4
:100EF000B11C7801412C42E0542E612C712C670109
:100F0000ACEECA1AABEFDA0AD601ED91FC9130973C
:100F1000B9F1848195819C838B83808191819E83AB
:100F20008D8382819381DC01ED91FC910480F581B8
:100F3000E02D199598878F83D601ED91FC918281E0
:100F40009381DC01ED91FC910680F781E02D1995EC
:100F50009A8789874B865C866D867E86F8018081BC
:100F60009181F601A081B18118966D917C911997BC
:100F7000DC01ED91FC91AE014F5F5F4FC801199507
:100F8000B2E0EB0EF11CEA14FB0409F0B8CF7801D3
:100F9000412C32E0532E612C712C6701EAEBCE1A02
:100FA000EBEFDE0AF601A081B1811097E1F1129614
:100FB0008D919C9113979C838B8314968D919C911A
:100FC00015979E838D83ED91FC9111970480F58197
:100FD000E02DCD01199598878F83D6018D919C9135
:100FE000DC01ED91FC910680F781E02D19959A873F
:100FF00089874B865C866D867E86D801ED91FC9153
:1010000080809180F60180819181DC01ED91FC91DD
:101010000280F381E02D1995AE014F5F5F4FBC0157
:10102000C801F4011995F2E0EF0EF11CEA14FB047B
:1010300009F0B3CFF801EE57FB4F81E080832E9685
:101040000FB6F894DEBF0FBECDBFDF91CF911F91D9
:101050000F91FF90EF90DF90CF90BF90AF909F9057
:101060008F907F906F905F904F9008958F929F9296
:10107000AF92BF92CF92DF92EF92FF920F931F93A6
:10108000CF93DF93CDB7DEB72A970FB6F894DEBFC4
:101090000FBECDBF8C015B0189E793E09A83898302
:1010A0001B821C821D821E821F82188619861A8648
:1010B000FDD56B017C01F80180859185A285B38502
:1010C000C81AD90AEA0AFB0AB501CE01019602D96B
:1010D00058EE852E53E0952EA12CB12CC701B601F8
:1010E000A5019401B7D769017A019B01AC018B81FD
:1010F0009C81AD81BE818C0D9D1DAE1DBF1D8B835E
:101100009C83AD83BE8360E472E48FE090E080D77F
:10111000CF80D884E984FA84C60ED71EE81EF91E53
:10112000CF82D886E986FA86C1D5CB80DC80ED8077
:10113000FE80F1E0CF1AD108E108F108A501940181
:1011400089D749015A019B01AC01C818D908EA089E
:10115000FB08F801C486D586E686F786CF80D8845A
:10116000E984FA84F6E3DF1AF5E6EF0AF4ECFF0A05
:1011700060E472E48FE090E04BD7C61AD70AE80A21
:10118000F90AF801C08AD18AE28AF38AB801605F5D
:101190007F4FC8010C96C6D289D5F801E957FB4F9D
:1011A00060837183828393832A960FB6F894DEBF9F
:1011B0000FBECDBFDF91CF911F910F91FF90EF90A8
:1011C000DF90CF90BF90AF909F908F9008952F9217
:1011D0003F924F925F926F927F928F929F92AF92C7
:1011E000BF92CF92DF92EF92FF920F931F93CF9314
:1011F000DF93CDB7DEB760970FB6F894DEBF0FBEB2
:10120000CDBF4C0153D56B017C01940129573B4F55
:101210003E832D83F90180819181A281B381A70151
:101220009601281B390B4A0B5B0BDA01C901893F78
:101230009A42A105B10510F035971082A4014858D3
:101240005B4F588B4F87DA018D919C91892B79F0F8
:10125000F401E557FB4F80819181A281B3818C1508
:101260009D05AE05BF0518F4FA0111821082340104
:10127000F0E86F1AFBEF7F0A940124583B4F3A8342
:101280002983A4014E575B4F58874F832C5E3F4FF5
:101290003C872B87435F5F4F5E874D8784010658ED
:1012A0001B4F1601270154E1250E311C411C511C16
:1012B000540184E1A80EB11C940122583B4F3C8399
:1012C0002B83A40145575B4F5A874987D401129657
:1012D0008D919C911397DC01ED91FC910680F78133
:1012E000E02D19959C0197FD25C1F3018081918125
:1012F000820F931F91838083AF85B8894D915C9154
:1013000047305105E1F4EB81FC8180819181AC0192
:101310004F5F5F4F51834083F401E80FF91F248B27
:10132000D8018D919C91119701978D939C93892B56
:1013300009F0BECF28E030E0EF85F88984C0411580
:10134000510511F52F3F310569F481E090E0AF853B
:10135000B8898D939C93E985FA85208231824282F7
:101360005382B4CFA3D46C197D098E099F096630CE
:1013700071058105910508F49BCFF401EE57FB4FF1
:1013800010828EEF9FEFFBC04130510591F42E3F4C
:10139000310519F482E090E02EC0EF85F8891182C2
:1013A0001082AF81B8858C91811182CFC4013BDD61
:1013B0008DCF4230510589F4F80131832083AB8110
:1013C000BC811D921C9283E090E0EF85F8899183A7
:1013D0008083D3012D933C9379CF4330510581F421
:1013E000322F2227F80180819181820F931F9183F0
:1013F000808384E090E0AF85B8898D939C9366CF1D
:101400004430510591F460E071E011D68F3F9105B1
:1014100039F485E090E0EF85F8899183808356CF99
:10142000AF85B8891D921C9251CF4530510571F49A
:10143000E981FA813183208386E090E0AF85B88925
:101440008D939C93F3013183208340CF4630510527
:10145000D1F4322F2227A981BA818D919C911197C5
:10146000820F931F8D939C9327E030E0EF85F889DE
:1014700031832083D8018D919C91892B09F018CF5D
:1014800028E030E0E0CF4830510509F011CFAF85BA
:10149000B8891D921C9260E071E0C9D58F3F91051B
:1014A00009F006CFA981BA81ED91FC913097A1F4A2
:1014B000C401B9DCC401EEDCF401ED57FB4FC0827E
:1014C000D182E282F382ED81FE81C082D182E2820A
:1014D000F3828FEF9FEF53C0EA30F10521F4B5019D
:1014E000C401C4DDF3CEE630F10549F4B5018B85C6
:1014F0009C8550DA81E0AD85BE858C93E7CEEB30DC
:10150000F10521F4EF81F8851082E0CEE154FE4F21
:10151000EE0FFF1FE80DF91D80819181009709F4FE
:10152000C7CEDC01ED91FC910190F081E02DB50179
:101530001995CCCEF401EE57FB4F80818823E9F05A
:1015400084010D571B4FF80180819181A281B381E5
:10155000A7019601281B390B4A0B5B0BDA01C90165
:10156000853C9940A105B10540F0C4015CDCD8017F
:10157000CD92DD92ED92FC92139780E090E0609620
:101580000FB6F894DEBF0FBECDBFDF91CF911F9194
:101590000F91FF90EF90DF90CF90BF90AF909F9012
:1015A0008F907F906F905F904F903F902F90089515
:1015B00080EF93E0909301048093000477D324E6B6
:1015C00030E040E050E046D5672B682B692B69F48A
:1015D0006AEF73E088ED93E0A8DB82E094E0F7DD4A
:1015E0006EEF73E088ED93E0A0DB82E094E0EFDD46
:1015F00061E070E080E090E088C385EB93E0909339
:1016000003048093020487EA98E090930504809392
:10161000040480E895E2A0E0B0E080930604909393
:101620000704A0930804B0930904109284088DE97C
:1016300093E09093930880939208109294081092EC
:101640009A081092990810929B081092A108109283
:10165000A0081092A2081092A6081092A508E6E130
:10166000F8E01192119288E0E834F807D1F7E8E445
:10167000F8E01192119288E0EA37F807D1F7E6E135
:10168000F4E0119286E0E631F807D9F7E6E1F6E0FA
:10169000119288E0E631F807D9F729EA33E0309370
:1016A000FF032093FE0387E393E09093010480936C
:1016B00000043093FB032093FA039093FD0380937F
:1016C000FC034FEB53E05093E3034093E20330936A
:1016D000E9032093E8039093EB038093EA038CEDF6
:1016E00095E09093ED038093EC0381E090E090937C
:1016F000EF038093EE0388E393E09093E7038093F6
:10170000E60388E493E09093D9038093D8038EEFA7
:1017100093E09093DB038093DA031092E10310923D
:10172000E0030895CF92DF92EF92FF920F931F9301
:10173000CF93DF938C01EB01688179818A819B8152
:1017400020E03AEC4AE95BE385D4F801C080D1801F
:10175000E280F380C20ED31EE41EF51EC082D18249
:10176000E282F382688379838A839B83DF91CF91BE
:101770001F910F91FF90EF90DF90CF900895FC01A3
:10178000818D228D90E0805C9F4F821B91098F7329
:1017900099270895FC01918D828D981731F0828DE3
:1017A000E80FF11D858D90E008958FEF9FEF08956C
:1017B000FC01918D828D981761F0828DDF01A80F59
:1017C000B11D5D968C91928D9F5F9F73928F90E07B
:1017D00008958FEF9FEF089580E090E0892B41F00E
:1017E00080E090E0892B21F00E940000811124C04C
:1017F0008DE89DE0892B39F080E090E0892B19F08D
:101800008CD181111CC080E090E0892B41F080E0F8
:1018100090E0892B21F00E940000811113C080E02C
:1018200090E0892BA1F080E090E0892B81F00E946C
:10183000000081110AC008950E940000D9CF0E94C3
:101840000000E1CF0E940000EACF0C940000089550
:10185000FC01848DDF01A80FB11DA35ABF4F2C914D
:10186000848D90E001968F739927848FA689B7891C
:101870002C93A089B1898C9180648C93938D848DF5
:10188000981306C00288F389E02D80818F7D8083C4
:101890000895CF93DF93EC01888D8823C1F0EA8906
:1018A000FB89808185FD05C0A889B9898C9186FD59
:1018B0000EC00FB607FCF5CF808185FFF2CFA88957
:1018C000B9898C9185FFEDCFCE01C2DFE8CFDF91E2
:1018D000CF910895CF92DF92FF920F931F93CF93F2
:1018E000DF931F92CDB7DEB76C0181E0D601589629
:1018F0008C9358975B969C915B975C968C915C97C8
:10190000981307C05096ED91FC915197808185FD09
:101910002DC0F601038D10E00F5F1F4F0F731127CD
:10192000F02EF601848DF81210C00FB607FCF9CF27
:10193000D6015096ED91FC915197808185FFF1CFB2
:10194000C601698385DF6981ECCF838DE80FF11DC6
:10195000E35AFF4F6083D6015B960C935B975296D8
:10196000ED91FC915397808180620CC0D601569610
:10197000ED91FC91579760835096ED91FC915197B2
:1019800080818064808381E090E00F90DF91CF912F
:101990001F910F91FF90DF90CF900895BF92CF924B
:1019A000DF92EF92FF92CF93DF93EC016A017B010C
:1019B000B22EE889F98982E08083411581EE5807CB
:1019C0006105710599F060E079E08DE390E0A70191
:1019D000960140D321503109410951095695479547
:1019E00037952795211580E1380790F0E889F98926
:1019F000108260E874E88EE190E0A70196012AD396
:101A00002150310941095109569547953795279538
:101A1000EC85FD853083EE85FF852083188EEC896B
:101A2000FD89B082EA89FB89808180618083EA89AF
:101A3000FB89808188608083EA89FB898081806856
:101A40008083EA89FB8980818F7D8083DF91CF91BC
:101A5000FF90EF90DF90CF90BF9008951F920F926C
:101A60000FB60F9211240BB60F922F938F939F9363
:101A7000EF93FF93E091B708F091B8088081E0916F
:101A8000BD08F091BE0882FD12C090818091C0080F
:101A90008F5F8F732091C108821751F0E091C008C9
:101AA000F0E0E955F74F958F8093C00801C0808121
:101AB000FF91EF919F918F912F910F900BBE0F90FF
:101AC0000FBE0F901F9018951F920F920FB60F9296
:101AD00011240BB60F922F933F934F935F936F9305
:101AE0007F938F939F93AF93BF93EF93FF9387EA77
:101AF00098E0AEDEFF91EF91BF91AF919F918F91F2
:101B00007F916F915F914F913F912F910F900BBEFD
:101B10000F900FBE0F901F90189587EA98E02FDE68
:101B200021E0892B09F420E0822F08951092AA0861
:101B30001092A90888EE93E0A0E0B0E08093AB0893
:101B40009093AC08A093AD08B093AE088BEC93E0F3
:101B50009093A8088093A7088DEC90E09093B40828
:101B60008093B3088CEC90E09093B6088093B5080E
:101B700088EC90E09093B8088093B70889EC90E0E7
:101B80009093BA088093B9088AEC90E09093BC08CF
:101B90008093BB088EEC90E09093BE088093BD08C4
:101BA0001092C0081092C1081092C2081092C30887
:101BB0000895CF92DF92EF92FF920F931F93CF93EE
:101BC000DF937C016A01EB0100E010E00C151D05BC
:101BD00071F06991D701ED91FC910190F081E02DB8
:101BE000C7011995892B19F00F5F1F4FEFCFC8015F
:101BF000DF91CF911F910F91FF90EF90DF90CF90E9
:101C000008950895B9D0FDDFA2D8CCEEDBE0D0DC9A
:101C10002097E9F3E1DDFBCF1F920F920FB60F92F1
:101C200011242F933F938F939F93AF93BF938091F2
:101C3000450990914609A0914709B0914809309112
:101C4000440923E0230F2D3720F40196A11DB11D77
:101C500005C026E8230F0296A11DB11D209344095B
:101C60008093450990934609A0934709B09348098A
:101C70008091490990914A09A0914B09B0914C0972
:101C80000196A11DB11D8093490990934A09A09323
:101C90004B09B0934C09BF91AF919F918F913F91A8
:101CA0002F910F900FBE0F901F9018952FB7F8949B
:101CB00060914509709146098091470990914809C2
:101CC0002FBF08953FB7F8948091490990914A0930
:101CD000A0914B09B0914C0926B5A89B05C02F3F98
:101CE00019F00196A11DB11D3FBF6627782F892FDE
:101CF0009A2F620F711D811D911D42E0660F771FA3
:101D0000881F991F4A95D1F708958F929F92AF929D
:101D1000BF92CF92DF92EF92FF926B017C01D2DFF4
:101D20004B015C01C114D104E104F104E1F06FD175
:101D3000C9DF681979098A099B09683E73408105E2
:101D4000910580F321E0C21AD108E108F10888EE7C
:101D5000880E83E0981EA11CB11CC114D104E104BB
:101D6000F10431F7DFCFFF90EF90DF90CF90BF907D
:101D7000AF909F908F900895789484B5826084BDD1
:101D800084B5816084BD85B5826085BD85B581607F
:101D900085BDEEE6F0E0808181608083E1E8F0E0DF
:101DA0001082808182608083808181608083E0E80E
:101DB000F0E0808181608083E1EBF0E080818460ED
:101DC0008083E0EBF0E0808181608083E1E9F0E0F6
:101DD000808182608083808181608083E0E9F0E09F
:101DE000808181608083E1EAF0E08081826080838D
:101DF000808181608083E0EAF0E08081816080837F
:101E0000E1E2F1E080818260808380818160808373
:101E1000E0E2F1E0808181608083EAE7F0E08081A8
:101E20008460808380818260808380818160808300
:101E30008081806880831092C100089590E0FC0149
:101E40003197E231F10508F04BC0EE58FF4F24C145
:101E5000809180008F7703C0809180008F7D809378
:101E60008000089580918000877FF9CF84B58F77B7
:101E700002C084B58F7D84BD08958091B0008F77B6
:101E800003C08091B0008F7D8093B0000895809151
:101E900090008F7707C0809190008F7D03C0809164
:101EA0009000877F8093900008958091A0008F77A5
:101EB00007C08091A0008F7D03C08091A000877F24
:101EC0008093A0000895809120018F7707C08091B2
:101ED00020018F7D03C080912001877F80932001A6
:101EE0000895CF93DF9390E0FC01E25BFE4F2491D5
:101EF000FC01EC56FE4F8491882349F190E0880F55
:101F0000991FFC01E25FFD4FA591B4918C509E4F4B
:101F1000FC01C591D4919FB7611108C0F8948C91D0
:101F2000209582238C93888182230AC0623051F4E9
:101F3000F8948C91322F309583238C938881822B57
:101F4000888304C0F8948C91822B8C939FBFDF917F
:101F5000CF9108950F931F93CF93DF931F92CDB727
:101F6000DEB7282F30E0F901E85FFE4F8491F901D8
:101F7000E25BFE4F1491F901EC56FE4F04910023F1
:101F8000C1F0882319F0698359DF6981E02FF0E0FF
:101F9000EE0FFF1FEC50FE4FA591B4919FB7F89440
:101FA0008C91611103C01095812301C0812B8C930A
:101FB0009FBF0F90DF91CF911F910F910895CF9305
:101FC000DF93282F30E0F901E85FFE4F8491F9019B
:101FD000E25BFE4FD491F901EC56FE4FC491CC2345
:101FE00089F081112BDFEC2FF0E0EE0FFF1FE6529E
:101FF000FE4FA591B4912C912D2381E090E021F426
:1020000080E002C080E090E0DF91CF9108950895D4
:10201000DB018F939F9346D0BF91AF91A29F800D1C
:10202000911DA39F900DB29F900D1124089597FBD1
:10203000072E16F4009406D077FD08D041D007FC97
:1020400005D03EF4909581959F4F089570956195C8
:102050007F4F0895A1E21A2EAA1BBB1BFD010DC0E4
:10206000AA1FBB1FEE1FFF1FA217B307E407F50748
:1020700020F0A21BB30BE40BF50B661F771F881F24
:10208000991F1A9469F760957095809590959B01BA
:10209000AC01BD01CF010895EE0FFF1F0590F49133
:1020A000E02D199421D0A59F900DB49F900DA49F71
:1020B000800D911D112408950790F691E02D19943B
:1020C000AA1BBB1B51E107C0AA1FBB1FA617B7075E
:1020D00010F0A61BB70B881F991F5A95A9F780957A
:1020E0009095BC01CD010895A29FB001B39FC0019E
:1020F000A39F700D811D1124911DB29F700D811D34
:102100001124911D08956F927F928F929F92AF92AA
:10211000BF92CF92DF92EF92FF920F931F93CF93D4
:10212000DF93EC01CB01209779F4DF91CF911F91E0
:102130000F91FF90EF90DF90CF90BF90AF909F9066
:102140008F907F906F90D3C0FE01E60FF71F9E0126
:1021500022503109E217F30708F4A8C0D9010D9104
:102160001C91119706171707B0F00530110508F4F8
:102170009BC0A801445051094617570708F494C062
:1021800002501109061B170B019311936D937C9359
:10219000CF0145D189C05B01A01AB10A4E01800E62
:1021A000911EA0914F09B0915009612C712C60E0F3
:1021B00070E0109709F449C0A815B905C9F5ED906C
:1021C000FC901197670142E0C40ED11CCA14DB04D5
:1021D00078F147018A189B08640142E0C40ED11CC3
:1021E0001296BC9012971396AC91B5E0CB16D10421
:1021F00040F0B282A38391828082D9018D939C9317
:1022000009C00E5F1F4F0E0D1F1DF90111830083C2
:10221000EB2DFA2F6115710531F0DB011396FC935C
:10222000EE93129741C0F0935009E0934F093CC0E0
:102230006D917C9111976616770608F43B01BD01FC
:1022400012960D90BC91A02DB4CF60914D09709164
:102250004E0968157905E9F468167906D0F44091BD
:102260000002509101024115510541F44DB75EB78E
:102270006091040270910502461B570BE417F507A5
:10228000A8F4F0934E09E0934D09F90191838083FE
:102290000BC02DD07C01009749F0A801BE0117D0DA
:1022A000CE01BDD0C70104C0CE0102C080E090E0E5
:1022B000DF91CF911F910F91FF90EF90DF90CF9022
:1022C000BF90AF909F908F907F906F900895FB018B
:1022D000DC0102C001900D9241505040D8F70895A2
:1022E000FB01DC0101900D920020E1F70895CF93EE
:1022F000DF938230910510F482E090E0E0914F0985
:10230000F091500920E030E0A0E0B0E0309739F1E2
:102310004081518148175907B8F04817590771F49F
:1023200082819381109729F013969C938E93129734
:102330002CC09093500980934F0927C02115310577
:1023400031F04217530718F0A901DB0101C0EF017A
:102350009A01BD01DF010280F381E02DD7CF211565
:102360003105F9F0281B390B2430310580F48A81BE
:102370009B816115710521F0FB019383828304C069
:102380009093500980934F09FE01329644C0FE019C
:10239000E20FF31F819391932250310939832883EF
:1023A0003AC020914D0930914E09232B41F42091E0
:1023B00002023091030230934E0920934D0920917F
:1023C0000002309101022115310541F42DB73EB7CD
:1023D0004091040250910502241B350BE0914D09F8
:1023E000F0914E09E217F307A0F42E1B3F0B2817BC
:1023F000390778F0AC014E5F5F4F2417350748F07E
:102400004E0F5F1F50934E0940934D098193919356
:1024100002C0E0E0F0E0CF01DF91CF910895CF93CB
:10242000DF93009709F487C0FC0132971382128270
:10243000C0914F09D0915009209781F420813181BA
:10244000280F391F80914D0990914E0982179307EB
:1024500079F5F0934E09E0934D096DC0DE0120E05F
:1024600030E0AE17BF0750F412964D915C91139770
:102470009D014115510509F1DA01F3CFB383A28320
:1024800040815181840F951F8A179B0771F48D91AC
:102490009C911197840F951F0296918380831296C9
:1024A0008D919C911397938382832115310529F493
:1024B000F0935009E0934F093EC0D9011396FC9365
:1024C000EE9312974D915D91A40FB51FEA17FB078C
:1024D00079F480819181840F951F0296D90111961C
:1024E0009C938E938281938113969C938E931297E3
:1024F000E0E0F0E08A819B81009719F0FE01EC0199
:10250000F9CFCE01029628813981820F931F209145
:102510004D0930914E092817390769F4309729F48D
:102520001092500910924F0902C013821282D09368
:102530004E09C0934D09DF91CF910895F894FFCFD4
:102540000000510980007374645F6D7367732F54CA
:10255000696D65006364373136366337346335350A
:102560003263333131666263633266653561376287
:102570006332383900726F7373657269616C5F6DB5
:102580007367732F546F706963496E666F003061B3
:1025900064353166383866633434383932663863C6
:1025A00031303638343037373634363030350072E3
:1025B0006F7373657269616C5F6D7367732F4C6FB6
:1025C0006700313161626437333163323539333317
:1025D00032363163643631383362643132643632D4
:1025E00039350039663065393862646136353938D5
:1025F0003139383664646635336166613761343049
:10260000653439007374645F6D7367732F5374722C
:10261000696E67003939326365386131363837633E
:1026200065633863386264383833656337336361B0
:1026300034316431004D6573736167652066726F74
:102640006D206465766963652064726F707065647F
:102650003A206D657373616765206C61726765729E
:10266000207468616E206275666665722E0049206E
:1026700068656172643A2000626C7565746F6F748E
:10268000685F696E70757400626C7565746F6F74E5
:10269000685F6F757470757400726F7373657269BB
:1026A000616C5F6D7367732F5265717565737450DC
:1026B0006172616D000000000048016A01B001B361
:1026C00001000000004703B6018E029102000000E5
:1026D00000CF039402D802DB0200000000FB03CA13
:1026E00004DE02E10200000000A304E40220032350
:1026F0000300000000EF05E7084203000000002689
:102700000338033C033F03000000006A0CD90DBFEF
:082710000BD80BCA0B490C00A9
:00000001FF
