:100000000C9463000C948B000C948B000C948B006C
:100010000C948B000C948B000C948B000C948B0034
:100020000C948B000C948B000C948B000C948B0024
:100030000C948B000C948B000C948B000C948B0014
:100040000C944E0D0C948B000C94710C0C94A30C1E
:100050000C948B000C948B000C948B000C948B00F4
:100060000C948B000C948B0000000008000201002F
:100070000003040700000000000000000102040863
:100080001020408001020408102001020408102002
:10009000040404040404040402020202020203032E
:1000A00003030303000000002300260029000000D2
:1000B0000000250028002B0000000000240027007D
:1000C0002A00690AD30C11241FBECFEFD8E0DEBF8F
:1000D000CDBF12E0A0E0B1E0E4E6F3E202C005909B
:1000E0000D92A83DB107D9F726E0A8EDB2E001C016
:1000F0001D92A138B207E1F710E0C6ECD0E004C0D1
:100100002297FE010E94650FC23CD107C9F70E94E9
:100110003F0D0C94B0110C940000FC01DB018281B6
:100120008C93838111968C931197848112968C9372
:100130001297858113968C931397868114968C93CE
:100140001497878115968C931597808516968C93B6
:100150001697818517968C9388E090E00895FC01AE
:10016000DB014C9150E060E070E042835383648394
:10017000758311968C911197582B42835383648316
:10018000758312968C911297682B428353836483F4
:10019000758313968C911397782B428353836483D2
:1001A000758314964C91149750E060E070E046839C
:1001B00057836087718715968C911597582B4683C6
:1001C00057836087718716968C911697682B4683A4
:1001D00057836087718717968C91782B4683578356
:1001E0006087718788E090E0089586E091E0089547
:1001F00084E191E008956F927F928F929F92AF92E7
:10020000BF92CF92DF92EF92FF920F931F93CF9303
:10021000DF93FC01DB018C9190E093838283119644
:100220002C911197922B9383828312964D915D911D
:100230006D917C9115975D0186E0A80EB11C8A0135
:100240009B010A5F1F4F2F4F3F4F6501CA1ADB0A00
:10025000E12CF12CC016D106E206F30640F4E501CC
:10026000F9905E01CE010297EC01F882EECFED012C
:10027000C40FD51F1D82CD01059695838483ED01A2
:10028000C40FD51FCE80DF80E884F984465F5F4FBE
:100290003D01640E751E8A01222717FD2095322F1D
:1002A0000C0D1D1D2E1D3F1D43018A1A9B0AA12CFA
:1002B000B12C80169106A206B30640F4E3016991C1
:1002C0003E01CE010297EC016883EECFC40ED51E2D
:1002D0009D012C0D3D1DC9010197EC011882415073
:1002E00051094A0F5B1F57834683E9010881198131
:1002F0002A813B81D4E0CD0ED11C3D016C0C7D1CCC
:10030000A601662757FD6095762F400F511F621F8B
:10031000731F43018A1A9B0AA12CB12C84169506DF
:10032000A606B70640F4E301F9903E01CE0102971C
:10033000EC01F882EECF0C0D1D1D9D01200F311F29
:10034000C9010197EC011882D1E0CD1AD108CA0E7B
:10035000DB1ED186C086D90111968C911197129619
:100360004C91129750E060E070E0BA0155274427A5
:10037000582B8C91482B13968C91782B428753875E
:1003800064877587C8010496DF91CF911F910F9103
:10039000FF90EF90DF90CF90BF90AF909F908F90A5
:1003A0007F906F90089585E391E008958EE491E049
:1003B0000895AF92BF92CF92DF92EF92FF921F9378
:1003C000CF93DF939C01FB018081D90112968C931E
:1003D00081819281A381B4815B01C5E0AC0EB11C27
:1003E000AC01BD014B5F5F4F6F4F7F4F6501CE1A70
:1003F000DF0AE12CF12CC416D506E606F70650F408
:10040000E501D9905E017E01D2E0ED1AF108E70125
:10041000D882ECCFEF01C80FD91F1C823496E901B6
:10042000FC83EB830596DF91CF911F91FF90EF90B6
:10043000DF90CF90BF90AF9008958FE691E0089540
:1004400082E891E0089589E592E0089583EA91E0D9
:100450000895AF92BF92CF92DF92EF92FF921F93D7
:10046000CF93DF935C019B01FB0181919191A1915D
:10047000B191AC01BD014C5F5F4F6F4F7F4F6F017A
:10048000C21AD30AE12CF12CC416D506E606F706EB
:1004900040F4D1907F0112E0E11AF108E701D8821F
:1004A000EECFF901E80FF91F13822D5F3F4FF501E1
:1004B000338322830496DF91CF911F91FF90EF90B9
:1004C000DF90CF90BF90AF90089584EC91E00895B5
:1004D00084ED91E008950F931F93CF93DF93EC0188
:1004E0008C010A5F1F4FC8010E942902EA85FB8523
:1004F000C801DF91CF911F910F910994FC01848570
:100500009585089584EC91E0089584ED91E0089537
:100510008E549D4FFC0180810895AF92BF92CF927F
:10052000DF92EF92FF920F931F93CF93DF93EC0133
:100530007B018A81DB018C938B8111968C93EC81FA
:10054000FD81DF010D900020E9F7CD0101976C01DD
:10055000CE1ADF0AC601A0E0B0E0FB0182839383DC
:10056000A483B5836C817D81A601C70106960E9494
:100570004210EE81FF81DF010D900020E9F7CD01EF
:1005800001975C01AE1ABF0AF701EC0DFD1D850154
:1005900020E030E006831783208731879AE0C90E78
:1005A000D11C6E817F81A501C7018C0D9D1D0E940C
:1005B0004210CA0CDB1CE885F985DF010D90002094
:1005C000E9F7CD0101975C01AE1ABF0AF701EC0D06
:1005D000FD1D850120E030E00083118322833383F9
:1005E00094E0C90ED11C68857985A501C7018C0DE1
:1005F0009D1D0E944210AC0CBD1C3A852B859C852C
:100600008D85F701EA0DFB1D30832183928383835F
:10061000C5010496DF91CF911F910F91FF90EF904C
:10062000DF90CF90BF90AF9008950F931F93CF931B
:10063000DF93DC01FB0112968C9112978083139655
:100640008D919C911497EC0109900020E9F7219776
:10065000C81BD90B8E0120E030E001831283238375
:10066000348313966D917C911497AE01CF0105965A
:100670000E944210CE010596DF91CF911F910F91FC
:100680000895BF92CF92DF92EF92FF920F931F9344
:10069000CF93DF93EC017B018A81DB018C93119670
:1006A0001C92119712961C92129713961C92FB01A2
:1006B000379640E024E030E05A81C901049645179E
:1006C000E0F4AF81B88524E0429FA00DB11D112454
:1006D0006C9111965C91119712963C91129713961A
:1006E0002C91DF0113976C9311965C9311963C93B8
:1006F00020839C014F5F3496DFCF4985F701E20FDD
:10070000F31F408311821282138220E03985F701A2
:10071000E80FF91F04962317B0F4AE85BF8534E0C7
:10072000239FA00DB11D11246C9111965C9111971E
:1007300012964C91129713963C9160835183428399
:1007400033832F5FE3CF28892083118212821382A3
:10075000B12C2889B21698F54B2D50E0440F551F47
:10076000EB89FC89E40FF51F0190F081E02DDF019A
:100770000D900020E9F79D01215031096901CE1A41
:10078000DF0AF701E80FF91F860120E030E000835F
:100790001183228333838C010C5F1F4FEB89FC890B
:1007A000E40FF51F60817181A601C701800F911FC1
:1007B0000E944210C601800F911FB394CACFDF91EF
:1007C000CF911F910F91FF90EF90DF90CF90BF904E
:1007D00008950F931F93CF93DF93DC011296ED9151
:1007E000FC911397EF0109900020E9F72197CE1BA8
:1007F000DF0B8E0120E030E0FB0101931193219388
:10080000319312966D917C911397AE01CF010E94A6
:100810004210CE010496DF91CF911F910F91089560
:100820004F925F927F928F929F92AF92BF92CF92A0
:10083000DF92EF92FF920F931F93CF93DF93EC0120
:100840008B01DB01FC908A818F1550F4B4E0FB9E94
:10085000B00111248F8198850E94780F98878F832B
:10086000FA82F8013796F12C44E050E09E012D5FAA
:100870003F4F8A81BA016C5F7F4F6B01F81660F5BC
:10088000408150E060E070E0742F662755274427D0
:10089000DF0113978C91482B11968C91582B119650
:1008A0008C91682B4B835C836D837E83A6016F8163
:1008B000788584E0F89E600D711D1124D9018D901A
:1008C0009D90AD90BC90DB018D929D92AD92BC92BB
:1008D0001397F3943496CDCFF801E40FF51FF08011
:1008E00089858F1550F484E0F89EB00111248E851F
:1008F0009F850E94780F9F878E879601F98680E0FA
:10090000FE013A969985D801A20FB31FA9014C5F49
:100910005F4F6A01891748F511969C9111971296BD
:100920004C91129750E060E070E0BA0155274427DF
:10093000592B9C91492B13969C91792B4A875B8765
:100940006C877D879601AE85BF8594E0899FA00D59
:10095000B11D112440815181628173814D935D935A
:100960006D937C9313978F5FCDCFFC9088898F1503
:1009700050F46F2D70E0660F771F8B899C890E9461
:10098000780F9C8B8B8BC601F88A712C2E0151E15C
:10099000450E511C2889721608F044C0F801E80F72
:1009A000F91FC080D180E280F3800496F801E80F3F
:1009B000F91FAC01662757FD6095762F4C0D5D1D24
:1009C0006E1D7F1D9F01201B310B4901A12CB12CF5
:1009D00084169506A606B70638F4B1909F012250FA
:1009E0003109D901BC92EECFC80ED91EF801EC0D29
:1009F000FD1D319710829C0121503109200F311FBC
:100A00003A8B298BC6013B892C89E32FF22FE70D06
:100A1000F11DE70DF11DD2012D913C913183208311
:100A20007394B8CFDF91CF911F910F91FF90EF900A
:100A3000DF90CF90BF90AF909F908F907F905F900E
:100A40004F900895CF93DF93EC018DE00E94D40E78
:100A500061E0681B8DE00E949E0E6A817B8180EFC1
:100A600092E0DF91CF910C944B10AF92BF92CF9256
:100A7000DF92EF92FF920F931F93CF93DF9300D0FB
:100A800000D01F92CDB7DEB78C016B0164367105C3
:100A90003CF0FC01EE54FD4F8081882309F479C0BD
:100AA000DA01ED91FC910190F081E02DB8016D5CCF
:100AB0007E4FCA0109957C015801B4EDAB1ABEEF17
:100AC000BB0A2FEFF50120832EEF3196208331965C
:100AD000808331969083890F8095319680833196FB
:100AE000C0823196D08285E090E020E030E0A7011E
:100AF000495F5F4F8417950750F4F801E80FF91F1D
:100B0000E45DFE4F6081260F311D0196F3CFF8E0C2
:100B1000EF0EF11C400F511FFA01E45DFE4F2095CE
:100B2000208329E1E21621E0F206C8F46501C6013E
:100B30008A199B098E159F0584F4D80112968D9110
:100B40009C911397F60161916F01DC01ED91FC918D
:100B50000190F081E02D0995EACFC7011CC081E921
:100B600092E09A83898383E08B8385EF91E09D8374
:100B70008C83D801ED91FC910190F081E02DAE01C4
:100B80004F5F5F4F67E070E0C80109958FEF9FEFFF
:100B900002C080E090E00F900F900F900F900F90A8
:100BA000DF91CF911F910F91FF90EF90DF90CF9049
:100BB000BF90AF900895CF93DF93AB01EC01AE816E
:100BC000BF81ED91FC9111976C817D810190F08145
:100BD000E02DCD01DF91CF91099480E895E2A0E06E
:100BE000B0E08093060390930703A0930803B093AB
:100BF000090326E040E855E260E070E080910403DC
:100C0000909105030E940F0C1092AB051092AA055B
:100C10001092AD051092AC051092B1051092B0057E
:100C20001092AF051092AE05E8E7F5E080E090E0A5
:100C300021913191232B81F4FC01EE0FFF1FE85825
:100C4000FA4F22EE32E0318320838C599F4F9093EC
:100C5000E5028093E40204C001968931910541F7D1
:100C6000E6E4F5E080E090E021913191232BB1F4AE
:100C7000FC01EE0FFF1FEA5BFA4F28ED32E03183F3
:100C8000208383589F4F9093DD028093DC0282E0A3
:100C900093E09093DF028093DE0204C001968931D5
:100CA000910511F78EE292E09093FD028093FC0291
:100CB00087E392E0909301038093000361E08DE06D
:100CC0000C94650E0F931F93CF93DF93CDB7DEB7D0
:100CD0002A970FB6F894DEBF0FBECDBF8C0189E70F
:100CE00092E09A8389831B821C821D821E821F824E
:100CF000188619861A86D801ED91FC910190F08131
:100D0000E02DAE014F5F5F4F6AE070E0C8010995CA
:100D10000E94980DF80160877187828793872A96D1
:100D20000FB6F894DEBF0FBECDBFDF91CF911F91FC
:100D30000F9108954F925F926F927F928F929F9240
:100D4000AF92BF92CF92DF92EF92FF920F931F93D9
:100D5000CF93DF93CDB7DEB72E970FB6F894DEBFF3
:100D60000FBECDBF8C0185E892E09A8389831C82F7
:100D70001B8287E392E09E838D8398878F839A8777
:100D800089871B861C861D861E86580182E3A80E55
:100D9000B11C780148E1442E55245394612C712CE8
:100DA0006701ACEBCA1AADEFDA0AD601ED91FC91FE
:100DB0003097B9F1848195819C838B838081918167
:100DC0009E838D8382819381DC01ED91FC9104806F
:100DD000F581E02D099598878F83D601ED91FC91DF
:100DE00082819381DC01ED91FC910680F781E02DF9
:100DF00009959A8789874B865C866D867E86F80181
:100E000080819181F601A081B18118966D917C91CC
:100E10001997DC01ED91FC91AE014F5F5F4FC80166
:100E20000995B2E0EB0EF11CEA14FB0409F0B8CF0F
:100E3000780138E1432E55245394612C712C6701BD
:100E4000EAE8CE1AEDEFDE0AF601A081B181109733
:100E5000E1F112968D919C9113979C838B8314964C
:100E60008D919C9115979E838D83ED91FC911197A7
:100E70000480F581E02DCD01099598878F83D601F7
:100E80008D919C91DC01ED91FC910680F781E02D24
:100E900009959A8789874B865C866D867E86D80100
:100EA000ED91FC9180809180F60180819181DC013F
:100EB000ED91FC910280F381E02D0995AE014F5F29
:100EC0005F4FBC01C801F4010995F2E0EF0EF11C7F
:100ED000EA14FB0409F0B3CFF801EE54FD4F81E0B2
:100EE00080832E960FB6F894DEBF0FBECDBFDF9184
:100EF000CF911F910F91FF90EF90DF90CF90BF9017
:100F0000AF909F908F907F906F905F904F900895DB
:100F10008F929F92AF92BF92CF92DF92EF92FF9209
:100F20000F931F93CF93DF93CDB7DEB72A970FB6FA
:100F3000F894DEBF0FBECDBF8C015B0189E792E064
:100F40009A8389831B821C821D821E821F821886BF
:100F500019861A860E94980D6B017C01F801808524
:100F60009185A285B385C81AD90AEA0AFB0AB50198
:100F7000CE0101960E94AF0058EE852E53E0952ECB
:100F8000A12CB12CC701B601A50194010E94220F2A
:100F900069017A019B01AC018B819C81AD81BE818D
:100FA0008C0D9D1DAE1DBF1D8B839C83AD83BE83A9
:100FB00060E472E48FE090E00E94FE0ECF80D8845F
:100FC000E984FA84C60ED71EE81EF91ECF82D886A1
:100FD000E986FA860E94980DCB80DC80ED80FE8049
:100FE000F1E0CF1AD108E108F108A50194010E94AF
:100FF000220F49015A019B01AC01C818D908EA081F
:10100000FB08F801C486D586E686F786CF80D884AB
:10101000E984FA84F6E3DF1AF5E6EF0AF4ECFF0A56
:1010200060E472E48FE090E00E94FE0EC61AD70AD8
:10103000E80AF90AF801C08AD18AE28AF38AB8017B
:10104000605F7F4FC8010C960E94FE0A0E94980DB7
:10105000F801E954FD4F60837183828393832A965C
:101060000FB6F894DEBF0FBECDBFDF91CF911F91B9
:101070000F91FF90EF90DF90CF90BF90AF909F9037
:101080008F9008952F923F924F925F926F927F922E
:101090008F929F92AF92BF92CF92DF92EF92FF9288
:1010A0000F931F93CF93DF93CDB7DEB760970FB643
:1010B000F894DEBF0FBECDBF4C010E94980D6B01AE
:1010C0007C01940129543D4F3E832D83F901808199
:1010D0009181A281B381A7019601281B390B4A0B8C
:1010E0005B0BDA01C901893F9A42A105B10510F0F5
:1010F00035971082A40148555D4F588B4F87DA0110
:101100008D919C91892B79F0F401E554FD4F8081FC
:101110009181A281B3818C159D05AE05BF0518F4A0
:10112000FA01118210823401F0E56F1AFDEF7F0A97
:10113000940124553D4F3A832983A4014E545D4FB9
:1011400058874F832C5E3F4F3C872B87435F5F4F11
:101150005E874D87840106551D4F1601270154E116
:10116000250E311C411C511C540184E1A80EB11CF8
:10117000940122553D4F3C832B83A40145545D4F80
:101180005A874987D40112968D919C911397DC015F
:10119000ED91FC910680F781E02D09959C0197FD6A
:1011A0002DC1F30180819181820F931F91838083F0
:1011B000AF85B8894D915C9147305105E1F4EB81E1
:1011C000FC8180819181AC014F5F5F4F51834083EF
:1011D000F401E80FF91F248BD8018D919C91119790
:1011E00001978D939C93892B09F0BECF28E030E0C6
:1011F000EF85F88987C04115510519F52F3F310555
:1012000069F481E090E0AF85B8898D939C93E9857E
:10121000FA852082318242825382B4CF0E94980D97
:101220006C197D098E099F0966307105810591054C
:1012300008F49ACFF401EE54FD4F10828EEF9FEF29
:1012400003C14130510599F42E3F310519F482E074
:1012500090E02FC0EF85F88911821082AF81B885A8
:101260008C91811181CFC4010E9462068BCF4230E4
:10127000510589F4F80131832083AB81BC811D9233
:101280001C9283E090E0EF85F88991838083D301FD
:101290002D933C9377CF4330510581F4322F222791
:1012A000F80180819181820F931F9183808384E074
:1012B00090E0AF85B8898D939C9364CF44305105FD
:1012C00099F460E071E00E940E0F8F3F910539F4B0
:1012D00085E090E0EF85F8899183808353CFAF85D7
:1012E000B8891D921C924ECF4530510571F4E981A9
:1012F000FA813183208386E090E0AF85B8898D93B1
:101300009C93F301318320833DCF46305105D1F4C6
:10131000322F2227A981BA818D919C911197820F3A
:10132000931F8D939C9327E030E0EF85F8893183FC
:101330002083D8018D919C91892B09F015CF28E04D
:1013400030E0E0CF4830510509F00ECFAF85B889C5
:101350001D921C9260E071E00E940E0F8F3F91057C
:1013600009F002CFA981BA81ED91FC913097B1F4D7
:10137000C4010E946206C4010E949A06F401ED5461
:10138000FD4FC082D182E282F382ED81FE81C08274
:10139000D182E282F3828FEF9FEF56C0EA30F105EF
:1013A00029F4B501C4010E948807ECCEE630F105AE
:1013B00051F4B5018B859C850E94100481E0AD85B8
:1013C000BE858C93DFCEEB30F10521F4EF81F885FB
:1013D0001082D8CEE952FF4FEE0FFF1FE80DF91D26
:1013E00080819181009709F4BFCEDC01ED91FC91E1
:1013F0000190F081E02DB5010995C4CEF401EE54C1
:10140000FD4F80818823F1F084010D541D4FF801B8
:1014100080819181A281B381A7019601281B390B9C
:101420004A0B5B0BDA01C901853C9940A105B10566
:1014300048F0C4010E946206D801CD92DD92ED927F
:10144000FC92139780E090E060960FB6F894DEBFB0
:101450000FBECDBFDF91CF911F910F91FF90EF9005
:10146000DF90CF90BF90AF909F908F907F906F90C4
:101470005F904F903F902F90089580EF92E090936F
:101480000103809300030E94980D24E630E040E0C1
:1014900050E00E94220F672B682B692B81F46AEFC2
:1014A00072E088ED92E00E94DB0582E093E00E940A
:1014B00042086EEF72E088ED92E00E94DB0582E068
:1014C00093E00E94420861E070E080E090E00C94BC
:1014D000C70D85EB92E0909303038093020387EDA1
:1014E00095E0909305038093040380E091EEA0E0E3
:1014F000B0E08093060390930703A0930803B09392
:1015000009031092B4058DE992E09093C30580938E
:10151000C2051092C4051092CA051092C905109216
:10152000CB051092D1051092D0051092D2051092E1
:10153000D6051092D505E6E4F5E01192119285E00A
:10154000E837F807D1F7E8E7F5E01192119285E066
:10155000EA3AF807D1F7E6E1F3E0119284E0EE32DF
:10156000F807D9F7EEE2F4E0119285E0E634F807E7
:10157000D9F729EA32E03093FF022093FE0287E395
:1015800092E090930103809300033093FB02209339
:10159000FA029093FD028093FC024FEB52E05093CD
:1015A000E3024093E2023093E9022093E802909331
:1015B000EB028093EA0282E295E09093ED02809341
:1015C000EC0281E090E09093EF028093EE0288E3DA
:1015D00092E09093E7028093E60288E492E0909391
:1015E000D9028093D8028EEF92E09093DB02809331
:1015F000DA021092E1021092E0020895CF92DF9297
:10160000EF92FF920F931F93CF93DF938C01EB0127
:10161000688179818A819B8120E03AEC4AE95BE329
:101620000E94220FF801C080D180E280F380C20EB8
:10163000D31EE41EF51EC082D182E282F38268834B
:1016400079838A839B83DF91CF911F910F91FF90C4
:10165000EF90DF90CF900895FC01818D228D90E076
:10166000805C9F4F821B91098F7399270895FC011D
:10167000918D828D981731F0828DE80FF11D858D47
:1016800090E008958FEF9FEF0895FC01918D828D7A
:10169000981761F0828DDF01A80FB11D5D968C91C6
:1016A000928D9F5F9F73928F90E008958FEF9FEFD1
:1016B000089589EC9CE0892B49F080E090E0892B2B
:1016C00029F00E94C90C81110C9400000895FC01BE
:1016D000848DDF01A80FB11DA35ABF4F2C91848DBB
:1016E00090E001968F739927848FA689B7892C93F0
:1016F000A089B1898C9180648C93938D848D98138B
:1017000006C00288F389E02D80818F7D8083089553
:10171000CF93DF93EC01888D8823C9F0EA89FB8998
:10172000808185FD05C0A889B9898C9186FD0FC08F
:101730000FB607FCF5CF808185FFF2CFA889B98964
:101740008C9185FFEDCFCE010E94670BE7CFDF9133
:10175000CF910895CF92DF92FF920F931F93CF9373
:10176000DF931F92CDB7DEB76C0181E0D6015896AA
:101770008C9358975B969C915B975C968C915C9749
:10178000981307C05096ED91FC915197808185FD8B
:101790002EC0F601038D10E00F5F1F4F0F7311274E
:1017A000F02EF601848DF81211C00FB607FCF9CFA8
:1017B000D6015096ED91FC915197808185FFF1CF34
:1017C000C60169830E94670B6981EBCF838DE80FA7
:1017D000F11DE35AFF4F6083D6015B960C935B9734
:1017E0005296ED91FC915397808180620CC0D60196
:1017F0005696ED91FC91579760835096ED91FC9130
:10180000519780818064808381E090E00F90DF9128
:10181000CF911F910F91FF90DF90CF900895BF92CD
:10182000CF92DF92EF92FF92CF93DF93EC016A01A8
:101830007B01B22EE889F98982E08083411581EE2F
:10184000580761057105A1F060E079E08DE390E053
:10185000A70196010E94220F215031094109510927
:101860005695479537952795211580E1380798F0CB
:10187000E889F989108260E874E88EE190E0A701B8
:1018800096010E94220F21503109410951095695B4
:10189000479537952795EC85FD853083EE85FF8547
:1018A0002083188EEC89FD89B082EA89FB898081CA
:1018B00080618083EA89FB89808188608083EA89EE
:1018C000FB89808180688083EA89FB8980818F7DA4
:1018D0008083DF91CF91FF90EF90DF90CF90BF900A
:1018E00008951F920F920FB60F9211242F938F938A
:1018F0009F93EF93FF93E091E705F091E8058081D6
:10190000E091ED05F091EE0582FD12C0908180918D
:10191000F0058F5F8F732091F105821751F0E091F0
:10192000F005F0E0E952FA4F958F8093F00501C081
:101930008081FF91EF919F918F912F910F900FBE1A
:101940000F901F9018951F920F920FB60F921124AF
:101950002F933F934F935F936F937F938F939F93B7
:10196000AF93BF93EF93FF9387ED95E00E94670BD2
:10197000FF91EF91BF91AF919F918F917F916F9167
:101980005F914F913F912F910F900FBE0F901F903D
:10199000189587ED95E00E942C0B21E0892B09F426
:1019A00020E0822F08951092DA051092D90588EE72
:1019B00093E0A0E0B0E08093DB059093DC05A0937A
:1019C000DD05B093DE058BEC92E09093D805809313
:1019D000D70585EC90E09093E4058093E30584ECD3
:1019E00090E09093E6058093E50580EC90E090937D
:1019F000E8058093E70581EC90E09093EA058093F9
:101A0000E90582EC90E09093EC058093EB0586EC81
:101A100090E09093EE058093ED051092F005109202
:101A2000F1051092F2051092F3050895CF92DF921E
:101A3000EF92FF920F931F93CF93DF937C016A0184
:101A4000EB0100E010E00C151D0571F06991D70164
:101A5000ED91FC910190F081E02DC7010995892B52
:101A600019F00F5F1F4FEFCFC801DF91CF911F918A
:101A70000F91FF90EF90DF90CF90089508950E940E
:101A8000010E0E943E0D0E94ED05C9E5DBE00E94BB
:101A90003D0A2097E1F30E94590BF9CF1F920F9254
:101AA0000FB60F9211242F933F938F939F93AF9371
:101AB000BF938091750690917606A0917706B091BC
:101AC00078063091740623E0230F2D3720F4019619
:101AD000A11DB11D05C026E8230F0296A11DB11D51
:101AE000209374068093750690937606A0937706EC
:101AF000B09378068091790690917A06A0917B0642
:101B0000B0917C060196A11DB11D8093790690933A
:101B10007A06A0937B06B0937C06BF91AF919F910C
:101B20008F913F912F910F900FBE0F901F9018959E
:101B30002FB7F894609175067091760680917706BC
:101B4000909178062FBF08953FB7F8948091790659
:101B500090917A06A0917B06B0917C0626B5A89B51
:101B600005C02F3F19F00196A11DB11D3FBF66278B
:101B7000782F892F9A2F620F711D811D911D42E0D0
:101B8000660F771F881F991F4A95D1F708958F9286
:101B90009F92AF92BF92CF92DF92EF92FF926B0132
:101BA0007C010E94A40D4B015C01C114D104E1042D
:101BB000F104F1F00E94FD0E0E94A40D681979094C
:101BC0008A099B09683E73408105910570F321E005
:101BD000C21AD108E108F10888EE880E83E0981E49
:101BE000A11CB11CC114D104E104F10429F7DDCF1B
:101BF000FF90EF90DF90CF90BF90AF909F908F902D
:101C00000895789484B5826084BD84B5816084BD74
:101C100085B5826085BD85B5816085BDEEE6F0E065
:101C2000808181608083E1E8F0E0108280818260C1
:101C30008083808181608083E0E8F0E08081816042
:101C40008083E1EBF0E0808184608083E0EBF0E072
:101C5000808181608083EAE7F0E080818460808316
:101C600080818260808380818160808380818068C0
:101C700080831092C1000895833081F028F4813070
:101C800099F08230A1F008958730A9F08830B9F03A
:101C90008430D1F4809180008F7D03C080918000DA
:101CA0008F7780938000089584B58F7702C084B5C4
:101CB0008F7D84BD08958091B0008F7703C080919F
:101CC000B0008F7D8093B0000895CF93DF9390E0B4
:101CD000FC01E458FF4F2491FC01E057FF4F849131
:101CE000882349F190E0880F991FFC01E854FF4FC9
:101CF000A591B49182559F4FFC01C591D4919FB796
:101D0000611108C0F8948C91209582238C9388816E
:101D100082230AC0623051F4F8948C91322F3095AE
:101D200083238C938881822B888304C0F8948C91C0
:101D3000822B8C939FBFDF91CF9108950F931F93B8
:101D4000CF93DF931F92CDB7DEB7282F30E0F90194
:101D5000E859FF4F8491F901E458FF4F1491F901BC
:101D6000E057FF4F04910023C9F0882321F06983D5
:101D70000E943C0E6981E02FF0E0EE0FFF1FE2555C
:101D8000FF4FA591B4919FB7F8948C91611103C056
:101D90001095812301C0812B8C939FBF0F90DF9101
:101DA000CF911F910F910895CF93DF93282F30E0AB
:101DB000F901E859FF4F8491F901E458FF4FD4919C
:101DC000F901E057FF4FC491CC2391F081110E949B
:101DD0003C0EEC2FF0E0EE0FFF1FEC55FF4FA591EE
:101DE000B4912C912D2381E090E021F480E002C099
:101DF00080E090E0DF91CF9108950895DB018F930B
:101E00009F930E94440FBF91AF91A29F800D911D9F
:101E1000A39F900DB29F900D1124089597FB072E5C
:101E200016F4009407D077FD09D00E944F0F07FCED
:101E300005D03EF4909581959F4F089570956195DA
:101E40007F4F0895A1E21A2EAA1BBB1BFD010DC0F6
:101E5000AA1FBB1FEE1FFF1FA217B307E407F5075A
:101E600020F0A21BB30BE40BF50B661F771F881F36
:101E7000991F1A9469F760957095809590959B01CC
:101E8000AC01BD01CF0108950E94690FA59F900D7F
:101E9000B49F900DA49F800D911D11240895AA1B3D
:101EA000BB1B51E107C0AA1FBB1FA617B70710F045
:101EB000A61BB70B881F991F5A95A9F78095909577
:101EC000BC01CD010895EE0FFF1F0590F491E02DA8
:101ED0000994A29FB001B39FC001A39F700D811D03
:101EE0001124911DB29F700D811D1124911D089523
:101EF000A0E0B0E0EEE7FFE00C947D11EC01CB0137
:101F0000209719F40E945210B8C0FE01E60FF71F87
:101F10009E0122503109E217F30708F4ACC0D90141
:101F20000D911C91119706171707B8F00530110590
:101F300008F49FC0A801445051094617570708F4F8
:101F400098C002501109061B170B019311936D9352
:101F50007C93CF010E94EA108CC05B01A01AB10AE9
:101F60004E01800E911EA0917F06B0918006612CDB
:101F7000712C60E070E0109709F449C0A815B9050C
:101F8000C9F5ED90FC901197670142E0C40ED11C99
:101F9000CA14DB0478F147018A189B08640142E007
:101FA000C40ED11C1296BC9012971396AC91B5E05A
:101FB000CB16D10440F0B282A38391828082D901F2
:101FC0008D939C9309C00E5F1F4F0E0D1F1DF901CD
:101FD00011830083EB2DFA2F6115710531F0DB01C0
:101FE0001396FC93EE93129744C0F0938006E0930F
:101FF0007F063FC06D917C9111976616770608F4B5
:102000003B01BD0112960D90BC91A02DB4CF609103
:102010007D0670917E0668157905E9F468167906E3
:10202000D0F440910001509101014115510541F456
:102030004DB75EB76091040170910501461B570BC7
:10204000E417F507C0F4F0937E06E0937D06F901EE
:10205000918380830EC00E9452107C01009759F03A
:10206000A801BE010E944210CE010E94EA10C701E1
:1020700004C0CE0102C080E090E0CDB7DEB7EEE054
:102080000C949911FB01DC0102C001900D924150AA
:102090005040D8F70895FB01DC0101900D9200201B
:1020A000E1F70895CF93DF938230910510F482E039
:1020B00090E0E0917F06F091800620E030E0A0E023
:1020C000B0E0309739F14081518148175907B8F095
:1020D0004817590771F482819381109729F013965C
:1020E0009C938E9312972CC09093800680937F06CA
:1020F00027C02115310531F04217530718F0A90107
:10210000DB0101C0EF019A01BD01DF010280F38113
:10211000E02DD7CF21153105F9F0281B390B2430DC
:10212000310580F48A819B816115710521F0FB01E5
:102130009383828304C09093800680937F06FE0180
:10214000329644C0FE01E20FF31F81939193225017
:102150003109398328833AC020917D0630917E066B
:10216000232B41F4209102013091030130937E062C
:1021700020937D0620910001309101012115310548
:1021800041F42DB73EB74091040150910501241B45
:10219000350BE0917D06F0917E06E217F307A0F47F
:1021A0002E1B3F0B2817390778F0AC014E5F5F4FAD
:1021B0002417350748F04E0F5F1F50937E0640935B
:1021C0007D068193919302C0E0E0F0E0CF01DF91C2
:1021D000CF910895CF93DF93009709F487C0FC0156
:1021E000329713821282C0917F06D0918006209789
:1021F00081F420813181280F391F80917D069091D3
:102200007E068217930779F5F0937E06E0937D06AC
:102210006DC0DE0120E030E0AE17BF0750F412962B
:102220004D915C9113979D014115510509F1DA011A
:10223000F3CFB383A28340815181840F951F8A1706
:102240009B0771F48D919C911197840F951F0296B5
:102250009183808312968D919C91139793838283AF
:102260002115310529F4F0938006E0937F063EC0E6
:10227000D9011396FC93EE9312974D915D91A40FA3
:10228000B51FEA17FB0779F480819181840F951FB0
:102290000296D90111969C938E9382819381139615
:1022A0009C938E931297E0E0F0E08A819B810097E7
:1022B00019F0FE01EC01F9CFCE0102962881398197
:1022C000820F931F20917D0630917E0628173907D3
:1022D00069F4309729F41092800610927F0602C0AC
:1022E00013821282D0937E06C0937D06DF91CF9138
:1022F00008952F923F924F925F926F927F928F92AA
:102300009F92AF92BF92CF92DF92EF92FF920F9384
:102310001F93CF93DF93CDB7DEB7CA1BDB0B0FB68E
:10232000F894DEBF0FBECDBF09942A88398848884B
:102330005F846E847D848C849B84AA84B984C884E1
:10234000DF80EE80FD800C811B81AA81B981CE0FD8
:10235000D11D0FB6F894DEBF0FBECDBFED010895BD
:04236000F894FFCF1F
:102364000000810680007374645F6D7367732F547B
:10237400696D6500636437313636633734633535E8
:102384003263333131666263633266653561376265
:102394006332383900726F7373657269616C5F6D93
:1023A4007367732F546F706963496E666F00306191
:1023B40064353166383866633434383932663863A4
:1023C40031303638343037373634363030350072C1
:1023D4006F7373657269616C5F6D7367732F4C6F94
:1023E40067003131616264373331633235393333F5
:1023F40032363163643631383362643132643632B2
:1024040039350039663065393862646136353938B2
:102414003139383664646635336166613761343026
:10242400653439007374645F6D7367732F5374720A
:10243400696E67003939326365386131363837631C
:10244400656338633862643838336563373363618E
:1024540034316431004D6573736167652066726F52
:102464006D206465766963652064726F707065645D
:102474003A206D657373616765206C61726765727C
:10248400207468616E206275666665722E0049204C
:1024940068656172643A2000626C7565746F6F746C
:1024A400685F696E70757400626C7565746F6F74C3
:1024B400685F6F757470757400726F737365726999
:1024C400616C5F6D7367732F5265717565737450BA
:1024D4006172616D00000000008D00AF00F500F82E
:1024E40000000000008D02FB00D301D601000000B3
:1024F400001503D9011D0220020000000041031051
:10250400042302260200000000E903290265026890
:102514000200000000350542088802000000006B3C
:10252400027E028202850200000000AA0B160D2C16
:082534000B450B370B880B006F
:00000001FF
