:100000000C9459000C9497040C94BE040C94810039
:100010000C9481000C9481000C9481000C9481005C
:100020000C9481000C9481000C9481000C9481004C
:100030000C9481000C9481000C9481000C9481003C
:100040000C94F5040C9481000C94CB020C94FD02EA
:100050000C9481000C9481000C9481000C9481001C
:100060000C9481000C94810001020408102040804F
:1000700001020408102001020408102004040404F2
:100080000404040402020202020203030303030342
:1000900000000000230026002900000000002500C9
:1000A00028002B0000000000240027002A00100177
:1000B0002D0311241FBECFEFD8E0DEBFCDBF11E06E
:1000C000A0E0B1E0E0EDFBE002C005900D92AE33A0
:1000D000B107D9F721E0AEE3B1E001C01D92A43F22
:1000E000B207E1F710E0C2EBD0E004C02297FE01B6
:1000F0000E94E205CE3AD107C9F70E94E6040C94AB
:10010000E6050C940000DC01ED91FD918081ED91FC
:10011000FD919081ED91FD916C9163708E2309F0BA
:1001200064609F2309F06860E0EAF0E0E60FF11DEB
:10013000659565956D936D917D918D919D910994D6
:1001400023C01AC012C016C010C01EC009C014C0FF
:1001500013C006C019C009C00DC007C00DC014C02F
:1001600062507040804090400BC0615070408040B1
:10017000904006C06E5F01C06F5F7F4F8F4F9F4FF3
:100180009E938E937E936E93089580914C019091EF
:100190004D010C94830080914A0190914B010C9485
:1001A000830026E040E855E260E070E08EE491E0F4
:1001B0000E94690268E071E08EE491E00C94B9035A
:1001C00080914901823030F4F8948EE391E00E94EE
:1001D000830001C0F894409145015091460160911F
:1001E000470170914801789480910001909101013C
:1001F000A0910201B0910301481759076A077B07D4
:1002000071F04093000150930101609302017093DB
:1002100003012AE030E08EE491E00C946404089538
:10022000CF93DF9362E082E00E94850562E083E085
:100230000E948505EEE7F0E0E491F0E0EE0FFF1F8D
:10024000E057FF4F8591949190933F0180933E0139
:10025000EAE6F0E0E491E0934201EFE7F0E0E491B8
:10026000F0E0EE0FFF1FE057FF4F859194919093C0
:10027000410180934001EBE6F0E0E491E09343011B
:1002800010924501109246011092470110924801C8
:1002900080ED97E00E943F05E0913E01F0913F0123
:1002A000908180914201982381E009F480E0E091FF
:1002B0004001F0914101908120914301922309F086
:1002C000826080934401CEE3D1E0D0934B01C09390
:1002D0004A0141E050E06BEC70E080E00E9477045E
:1002E00081E080934901D0934D01C0934C0141E0DE
:1002F00050E065EC70E00E9477048091490190E045
:10030000019680934901DF91CF910895FC01818D81
:10031000228D90E0805C9F4F821B91098F739927FB
:100320000895FC01918D828D981731F0828DE80F30
:10033000F11D858D90E008958FEF9FEF0895FC01EA
:10034000918D828D981761F0828DDF01A80FB11D0C
:100350005D968C91928D9F5F9F73928F90E0089530
:100360008FEF9FEF089583E293E0892B49F080E0BF
:1003700090E0892B29F00E94230381110C94000046
:100380000895FC01848DDF01A80FB11DA35ABF4F52
:100390002C91848D90E001968F739927848FA68984
:1003A000B7892C93A089B1898C9180648C93938DAB
:1003B000848D981306C00288F389E02D80818F7D9B
:1003C00080830895CF93DF93EC01888D8823C9F053
:1003D000EA89FB89808185FD05C0A889B9898C914E
:1003E00086FD0FC00FB607FCF5CF808185FFF2CFE9
:1003F000A889B9898C9185FFEDCFCE010E94C101FA
:10040000E7CFDF91CF910895CF92DF92FF920F93C4
:100410001F93CF93DF931F92CDB7DEB76C0181E0BE
:10042000D60158968C9358975B969C915B975C96F7
:100430008C915C97981307C05096ED91FC91519761
:10044000808185FD2EC0F601038D10E00F5F1F4FE8
:100450000F731127F02EF601848DF81211C00FB61C
:1004600007FCF9CFD6015096ED91FC915197808110
:1004700085FFF1CFC60169830E94C1016981EBCF7D
:10048000838DE80FF11DE35AFF4F6083D6015B9621
:100490000C935B975296ED91FC915397808180620B
:1004A0000CC0D6015696ED91FC91579760835096FB
:1004B000ED91FC91519780818064808381E090E090
:1004C0000F90DF91CF911F910F91FF90DF90CF9010
:1004D0000895BF92CF92DF92EF92FF92CF93DF9376
:1004E000EC016A017B01B22EE889F98982E0808300
:1004F000411581EE580761057105A1F060E079E0D2
:100500008DE390E0A70196010E94BE0521503109BC
:10051000410951095695479537952795211580E151
:10052000380798F0E889F989108260E874E88EE16C
:1005300090E0A70196010E94BE05215031094109B2
:1005400051095695479537952795EC85FD8530835C
:10055000EE85FF852083188EEC89FD89B082EA89BB
:10056000FB89808180618083EA89FB898081886042
:100570008083EA89FB89808180688083EA89FB899E
:1005800080818F7D8083DF91CF91FF90EF90DF900E
:10059000CF90BF9008951F920F920FB60F92112423
:1005A0002F938F939F93EF93FF93E0915E01F091D0
:1005B0005F018081E0916401F091650182FD12C0CC
:1005C0009081809167018F5F8F73209168018217FE
:1005D00051F0E0916701F0E0E25BFE4F958F809370
:1005E000670101C08081FF91EF919F918F912F91C1
:1005F0000F900FBE0F901F9018951F920F920FB67D
:100600000F9211242F933F934F935F936F937F9398
:100610008F939F93AF93BF93EF93FF938EE491E0FB
:100620000E94C101FF91EF91BF91AF919F918F9176
:100630007F916F915F914F913F912F910F900FBEDE
:100640000F901F9018958EE491E00E94860121E0A2
:10065000892B09F420E0822F089510925101109205
:10066000500188EE93E0A0E0B0E0809352019093B7
:100670005301A0935401B093550180E291E090930F
:100680004F0180934E0185EC90E090935B01809345
:100690005A0184EC90E090935D0180935C0180ECC2
:1006A00090E090935F0180935E0181EC90E09093E5
:1006B00061018093600182EC90E0909363018093EC
:1006C000620186EC90E09093650180936401109242
:1006D0006701109268011092690110926A010895F1
:1006E000CF92DF92EF92FF920F931F93CF93DF93FE
:1006F0007C016A01EB0100E010E00C151D0571F0B2
:100700006991D701ED91FC910190F081E02DC70135
:100710000995892B19F00F5F1F4FEFCFC801DF91AB
:10072000CF911F910F91FF90EF90DF90CF900895A0
:100730006115710581F0DB010D900020E9F7AD0135
:1007400041505109461B570BDC01ED91FC91028091
:10075000F381E02D099480E090E00895DC01ED91B3
:10076000FC910190F081E02D09946CE271E00C9411
:1007700098030F931F93CF93DF93EC010E9498038C
:100780008C01CE010E94B503800F911FDF91CF91A4
:100790001F910F9108958F929F92AF92BF92DF9217
:1007A000EF92FF920F931F93CF93DF93CDB7DEB7F6
:1007B000A1970FB6F894DEBF0FBECDBF7C01F42F1A
:1007C000D52ECB0119A2223008F42AE08E010F5D4C
:1007D0001F4F822E912CA12CB12C6F2F7D2DA501A6
:1007E00094010E94BE05F22FD32ECA0101501109B7
:1007F0006A3014F4E0E301C0E7E3E60FD801EC93BC
:10080000232B242B252B49F7B801C7010E949803FD
:10081000A1960FB6F894DEBF0FBECDBFDF91CF918A
:100820001F910F91FF90EF90DF90BF90AF909F903E
:100830008F900895CF92DF92EF92FF920F931F93C4
:10084000CF93DF93EC016A017B012115310579F427
:10085000E881F9810190F081E02D642FDF91CF9143
:100860001F910F91FF90EF90DF90CF9009942A3065
:100870003105E9F477FF1AC06DE20E94AE038C01E6
:1008800044275527BA014C195D096E097F092AE0F2
:10089000CE010E94CB03800F911FDF91CF911F915A
:1008A0000F91FF90EF90DF90CF9008952AE0B7016D
:1008B000A601CE01DF91CF911F910F91FF90EF9094
:1008C000DF90CF900C94CB030F931F93CF93DF93C4
:1008D000EC010E941A048C01CE010E94B503800F26
:1008E000911FDF91CF911F910F910895089582304C
:1008F000E8F4E82FF0E0EE0FFF1FEC5FFE4F71838E
:100900006083813041F0809169008C7F842B8093DB
:100910006900E89A089580916900440F551F440FBB
:10092000551F837F842B80936900E99A08951F9255
:100930000F920FB60F9211242F933F934F935F9313
:100940006F937F938F939F93AF93BF93EF93FF9397
:10095000E0910401F09105010995FF91EF91BF919C
:10096000AF919F918F917F916F915F914F913F9147
:100970002F910F900FBE0F901F9018951F920F92FE
:100980000FB60F9211242F933F934F935F936F9362
:100990007F938F939F93AF93BF93EF93FF93E091D8
:1009A0000601F09107010995FF91EF91BF91AF9179
:1009B0009F918F917F916F915F914F913F912F9177
:1009C0000F900FBE0F901F90189508950E944A0532
:1009D0000E94E5040E94D100C3EBD1E00E94E00038
:1009E0002097E1F30E94B301F9CF1F920F920FB647
:1009F0000F9211242F933F938F939F93AF93BF93A5
:100A00008091EC019091ED01A091EE01B091EF0188
:100A10003091EB0123E0230F2D3720F40196A11D27
:100A2000B11D05C026E8230F0296A11DB11D20931C
:100A3000EB018093EC019093ED01A093EE01B09354
:100A4000EF018091F0019091F101A091F201B0913C
:100A5000F3010196A11DB11D8093F0019093F10166
:100A6000A093F201B093F301BF91AF919F918F9149
:100A70003F912F910F900FBE0F901F9018958230CD
:100A8000910538F0880F991F880F991F05970197D6
:100A9000F1F70895789484B5826084BD84B581604F
:100AA00084BD85B5826085BD85B5816085BDEEE676
:100AB000F0E0808181608083E1E8F0E01082808155
:100AC00082608083808181608083E0E8F0E08081C3
:100AD00081608083E1EBF0E0808184608083E0EBE3
:100AE000F0E0808181608083EAE7F0E080818460CB
:100AF0008083808182608083808181608083808127
:100B0000806880831092C1000895CF93DF9390E0B6
:100B1000FC01E859FF4F2491FC01E458FF4F8491F8
:100B2000882349F190E0880F991FFC01EC55FF4F95
:100B3000A591B49186569F4FFC01C591D4919FB762
:100B4000611108C0F8948C91209582238C93888140
:100B500082230AC0623051F4F8948C91322F309580
:100B600083238C938881822B888304C0F8948C9192
:100B7000822B8C939FBFDF91CF910895A1E21A2E13
:100B8000AA1BBB1BFD010DC0AA1FBB1FEE1FFF1F31
:100B9000A217B307E407F50720F0A21BB30BE40B81
:100BA000F50B661F771F881F991F1A9469F76095C8
:100BB0007095809590959B01AC01BD01CF01089582
:100BC000EE0FFF1F0590F491E02D0994F894FFCFEC
:100BD00019FCFFFF76047604426173696320456E59
:100BE000636F64657220546573743A0000000000FE
:100BF0000402700386019F019101E2010D0A006E5B
:0E0C0000616E00696E66006F7666002E000061
:00000001FF
