:10000000E7C0000094C50000BDC50000E6C50000C3
:100010000FC6000038C6000061C600008AC6000096
:10002000B3C6000003C1000001C10000FFC0000012
:10003000FDC00000FBC00000F9C00000F7C00000D8
:10004000F5C00000F3C00000F1C00000EFC00000E8
:10005000EDC00000EBC00000E9C00000CBC600000E
:10006000E5C000004CC3000080C30000DFC00000FA
:10007000DDC00000DBC00000D9C00000D7C0000018
:10008000D5C00000D3C00000D1C00000CFC0000028
:10009000CDC00000CBC00000C9C00000C7C0000038
:1000A000C5C00000C3C00000C1C00000BFC0000048
:1000B000BDC00000BBC00000B9C00000B7C0000058
:1000C000B5C00000B3C00000B1C00000AFC0000068
:1000D000ADC00000ABC00000A9C00000A7C0000078
:1000E000A5C0000071053B0543054F055C057D0576
:1000F0008A050102102020080810204010204080AE
:1001000002010201080402010102040810204080DB
:100110008040201008040201800402018040201069
:1001200008040201080402010102040810204080B2
:100130000102040810204080050505050705080890
:100140000808020202020A0A080804040404010161
:100150000101010101010303030303030303040776
:1001600007070C0C0C0C0C0C0C0C0202020206060D
:100170000606060606060B0B0B0B0B0B0B0B000003
:1001800020002300260029002C002F00320000014F
:1001900000000301060109010000220025002800DB
:1001A0002B002E003100340002010000050108017F
:1001B0000B0100002100240027002A002D00300040
:1001C000330001010000040107010A019E01E70359
:1001D00011241FBECFEFD1E2DEBFCDBF00E00CBFC8
:1001E00012E0A0E0B2E0E0E3F0E100E00BBF02C00B
:1001F00007900D92AA34B107D9F723E0AAE4B2E040
:1002000001C01D92A830B207E1F711E0C0EDD1E0C6
:1002100000E005C022970109FE010BBF03D7CC3CCB
:10022000D10780E00807B1F7DBD500C7E9CEDC01D4
:10023000ED91FD918081ED91FD919081ED91FD9188
:100240006C9163708E2309F064609F2309F06860ED
:10025000E4E3F1E0E60FF11D659565956D936D9111
:100260007D918D919D91099423C01AC012C016C032
:1002700010C01EC009C014C013C006C019C009C0F8
:100280000DC007C00DC014C0625070408040904047
:100290000BC0615070408040904006C06E5F01C04E
:1002A0006F5F7F4F8F4F9F4F9E938E937E936E9382
:1002B00008958091600290916102B9CF80915E02B1
:1002C00090915F02B4CF26E040E855E260E070E034
:1002D00082E692E0B4D164E172E082E692E002C389
:1002E00080915502823028F4F8948AE492E09FDFEE
:1002F00001C0F89440915102509152026091530212
:100300007091540278948091000290910102A09122
:100310000202B0910302481759076A077B0769F088
:100320004093000250930102609302027093030213
:100330002AE030E082E692E079C30895CF93DF931C
:1003400062E082E10ED662E083E10BD6EAE4F1E0FE
:10035000E491F0E0EE0FFF1FE258FE4F859194917B
:1003600090934B0280934A02E4E0F1E0E491E09341
:100370004E02EBE4F1E0E491F0E0EE0FFF1FE258F3
:10038000FE4F8591949190934D0280934C02E5E04D
:10039000F1E0E491E0934F02109251021092520268
:1003A000109253021092540280ED97E06DD5E091C7
:1003B0004A02F0914B02908180914E02982381E095
:1003C00009F480E0E0914C02F0914D02908120917F
:1003D0004F02922309F0826080935002CAE4D2E077
:1003E000D0936102C093600241E050E069E571E0A2
:1003F00085E02DD381E080935502D0935F02C093B6
:100400005E0241E050E06EE571E084E020D380912F
:10041000550290E0019680935502DF91CF910895A7
:10042000FC01818D228D90E0805C9F4F821B9109A1
:100430008F7399270895FC01918D828D981731F063
:10044000828DE80FF11D858D90E008958FEF9FEF6D
:100450000895FC01918D828D981761F0828DDF01E6
:10046000A80FB11D5D968C91928D9F5F9F73928FA7
:1004700090E008958FEF9FEF08958EED93E0892B24
:1004800039F080E090E0892B19F098D1811125C0D6
:1004900080E090E0892B41F080E090E0892B21F012
:1004A0000E94000081111CC080E090E0892B41F087
:1004B00080E090E0892B21F00E940000811113C0A0
:1004C00080E090E0892BA1F080E090E0892B81F022
:1004D0000E94000081110AC008950E940000D8CF38
:1004E0000E940000E1CF0E940000EACF0C940000BF
:1004F0000895FC01848DDF01A80FB11DA35ABF4FE1
:100500002C91848D90E001968F739927848FA68912
:10051000B7892C93A089B1898C9180648C93938D39
:10052000848D981306C00288F389E02D80818F7D29
:1005300080830895CF93DF93EC01888D8823C1F0E9
:10054000EA89FB89808185FD05C0A889B9898C91DC
:1005500086FD0EC00FB607FCF5CF808185FFF2CF78
:10056000A889B9898C9185FFEDCFCE01C2DFE8CF94
:10057000DF91CF910895CF92DF92FF920F931F9357
:10058000CF93DF931F92CDB7DEB76C0181E0D60128
:1005900058968C9358975B969C915B975C968C9140
:1005A0005C97981307C05096ED91FC91519780810C
:1005B00085FD2DC0F601038D10E00F5F1F4F0F73F7
:1005C0001127F02EF601848DF81210C00FB607FC2B
:1005D000F9CFD6015096ED91FC915197808185FF1E
:1005E000F1CFC601698385DF6981ECCF838DE80F88
:1005F000F11DE35AFF4F6083D6015B960C935B9726
:100600005296ED91FC915397808180620CC0D60187
:100610005696ED91FC91579760835096ED91FC9121
:10062000519780818064808381E090E00F90DF911A
:10063000CF911F910F91FF90DF90CF900895BF92BF
:10064000CF92DF92EF92FF92CF93DF93EC016A019A
:100650007B01B22EE889F98982E08083411581EE21
:1006600058076105710599F060E079E08DE390E04D
:10067000A7019601AFD4215031094109510956957E
:10068000479537952795211580E1380790F0E8893F
:10069000F989108260E874E88EE190E0A701960184
:1006A00099D42150310941095109569547953795FB
:1006B0002795EC85FD853083EE85FF852083188E98
:1006C000EC89FD89B082EA89FB8980818061808321
:1006D000EA89FB89808188608083EA89FB8980813F
:1006E00080688083EA89FB8980818F7D8083DF91A8
:1006F000CF91FF90EF90DF90CF90BF9008951F9221
:100700000F920FB60F9211240BB60F922F938F9367
:100710009F93EF93FF93E0917202F09173028081B7
:10072000E0917802F091790282FD12C0908180916F
:100730007B028F5F8F7320917C02821751F0E091D2
:100740007B02F0E0EE59FD4F958F80937B0201C054
:100750008081FF91EF919F918F912F910F900BBE10
:100760000F900FBE0F901F9018951F920F920FB60B
:100770000F9211240BB60F922F933F934F935F93D9
:100780006F937F938F939F93AF93BF93EF93FF9359
:1007900082E692E0AEDEFF91EF91BF91AF919F9123
:1007A0008F917F916F915F914F913F912F910F901A
:1007B0000BBE0F900FBE0F901F90189582E692E02F
:1007C0002FDE21E0892B09F420E0822F089510927A
:1007D00065021092640288EE93E0A0E0B0E080939E
:1007E000660290936702A0936802B09369028CE25C
:1007F00092E0909363028093620285EC90E0909384
:100800006F0280936E0284EC90E09093710280936B
:10081000700280EC90E0909373028093720281ECFE
:1008200090E0909375028093740282EC90E0909334
:1008300077028093760286EC90E090937902809321
:10084000780210927B0210927C0210927D0210922C
:100850007E020895CF92DF92EF92FF920F931F9343
:10086000CF93DF937C016A01EB0100E010E00C15EF
:100870001D0571F06991D701ED91FC910190F08116
:10088000E02DC7011995892B19F00F5F1F4FEFCF8E
:10089000C801DF91CF911F910F91FF90EF90DF90F2
:1008A000CF9008956115710581F0DB010D90002056
:1008B000E9F7AD0141505109461B570BDC01ED91A1
:1008C000FC910280F381E02D199480E090E008957E
:1008D000DC01ED91FC910190F081E02D199468E329
:1008E00072E0E0CF0F931F93CF93DF93EC01DADF39
:1008F0008C01CE01F4DF800F911FDF91CF911F910A
:100900000F9108958F929F92AF92BF92DF92EF92D4
:10091000FF920F931F93CF93DF93CDB7DEB7A197CD
:100920000FB6F894DEBF0FBECDBF7C01F42FD52EDD
:10093000CB0119A2223008F42AE08E010F5D1F4F6F
:10094000822E912CA12CB12C6F2F7D2DA50194010D
:1009500041D3F22FD32ECA01015011096A3014F489
:10096000E0E301C0E7E3E60FD801EC93232B242B4F
:10097000252B51F7B801C70195DFA1960FB6F89462
:10098000DEBF0FBECDBFDF91CF911F910F91FF90C2
:10099000EF90DF90BF90AF909F908F900895CF928F
:1009A000DF92EF92FF920F931F93CF93DF93EC01AF
:1009B0006A017B012115310579F4E881F981019003
:1009C000F081E02D642FDF91CF911F910F91FF9067
:1009D000EF90DF90CF9019942A303105D9F477FF4A
:1009E00018C06DE275DF8C0144275527BA014C19F8
:1009F0005D096E097F092AE0CE0184DF800F911F17
:100A0000DF91CF911F910F91FF90EF90DF90CF90EA
:100A100008952AE0B701A601CE01DF91CF911F9181
:100A20000F91FF90EF90DF90CF906CCF0F931F93BB
:100A3000CF93DF93EC01B3DF8C01CE0150DF800F49
:100A4000911FDF91CF911F910F91089508958830E4
:100A500008F06CC0E82FF0E0EE0FFF1FEC5FFD4FD9
:100A60007183608390E0FC013197E730F10588F5F0
:100A7000EE58FF4FD1C2809169008C7F842B809308
:100A80006900E89A089580916900440F551F440F4A
:100A9000551F837F842B80936900E99A0895809184
:100AA000690074E0440F551F7A95E1F78F7C842B21
:100AB00080936900EA9A08958091690066E0440F86
:100AC000551F6A95E1F78F73842B80936900EB9A29
:100AD000089580916A008C7F842B80936A00EC9A41
:100AE000089580916A00440F551F440F551F837F5E
:100AF000842B80936A00ED9A089580916A0024E027
:100B0000440F551F2A95E1F78F7C842B80936A0050
:100B1000EE9A089580916A0096E0440F551F9A95C9
:100B2000E1F78F73842B80936A00EF9A08951F92E8
:100B30000F920FB60F9211240BB60F922F933F9383
:100B40004F935F936F937F938F939F93AF93BF93D5
:100B5000EF93FF93E0910802F09109021995FF913C
:100B6000EF91BF91AF919F918F917F916F915F9125
:100B70004F913F912F910F900BBE0F900FBE0F9092
:100B80001F9018951F920F920FB60F9211240BB65B
:100B90000F922F933F934F935F936F937F938F9316
:100BA0009F93AF93BF93EF93FF93E0910A02F0916D
:100BB0000B021995FF91EF91BF91AF919F918F918A
:100BC0007F916F915F914F913F912F910F900BBE4D
:100BD0000F900FBE0F901F9018951F920F920FB697
:100BE0000F9211240BB60F922F933F934F935F9365
:100BF0006F937F938F939F93AF93BF93EF93FF93E5
:100C0000E0910C02F0910D021995FF91EF91BF91C7
:100C1000AF919F918F917F916F915F914F913F9194
:100C20002F910F900BBE0F900FBE0F901F90189535
:100C30001F920F920FB60F9211240BB60F922F93A3
:100C40003F934F935F936F937F938F939F93AF9354
:100C5000BF93EF93FF93E0910E02F0910F0219956D
:100C6000FF91EF91BF91AF919F918F917F916F9184
:100C70005F914F913F912F910F900BBE0F900FBE40
:100C80000F901F9018951F920F920FB60F9211247C
:100C90000BB60F922F933F934F935F936F937F9376
:100CA0008F939F93AF93BF93EF93FF93E0910402D1
:100CB000F09105021995FF91EF91BF91AF919F912E
:100CC0008F917F916F915F914F913F912F910F90F5
:100CD0000BBE0F900FBE0F901F9018951F920F9292
:100CE0000FB60F9211240BB60F922F933F934F9391
:100CF0005F936F937F938F939F93AF93BF93EF9384
:100D0000FF93E0910602F09107021995FF91EF9190
:100D1000BF91AF919F918F917F916F915F914F9113
:100D20003F912F910F900BBE0F900FBE0F901F9011
:100D300018951F920F920FB60F9211240BB60F92B7
:100D40002F933F934F935F936F937F938F939F93D3
:100D5000AF93BF93EF93FF93E0911002F0911102D4
:100D60001995FF91EF91BF91AF919F918F917F91D5
:100D70006F915F914F913F912F910F900BBE0F900C
:100D80000FBE0F901F9018951F920F920FB60F92E3
:100D900011240BB60F922F933F934F935F936F9352
:100DA0007F938F939F93AF93BF93EF93FF93E091C4
:100DB0001202F09113021995FF91EF91BF91AF913B
:100DC0009F918F917F916F915F914F913F912F9163
:100DD0000F900BBE0F900FBE0F901F9018950895A7
:100DE0005ED0FDDF70DACDE3D2E07ADA2097E9F366
:100DF00044DBFBCF1F920F920FB60F9211242F935B
:100E00003F938F939F93AF93BF93809100039091F3
:100E10000103A0910203B09103033091FF0223E08C
:100E2000230F2D3720F40196A11DB11D05C026E822
:100E3000230F0296A11DB11D2093FF028093000392
:100E400090930103A0930203B093030380910403E2
:100E500090910503A0910603B09107030196A11D8F
:100E6000B11D8093040390930503A0930603B093F0
:100E70000703BF91AF919F918F913F912F910F9059
:100E80000FBE0F901F9018958230910538F0880F93
:100E9000991F880F991F05970197F1F70895789486
:100EA00084B5826084BD84B5816084BD85B582606F
:100EB00085BD85B5816085BDEEE6F0E0808181600D
:100EC0008083E1E8F0E0108280818260808380810D
:100ED00081608083E0E8F0E0808181608083E1EBE5
:100EE000F0E0808184608083E0EBF0E080818160CD
:100EF0008083E1E9F0E0808182608083808181608D
:100F00008083E0E9F0E0808181608083E1EAF0E0C5
:100F1000808182608083808181608083E0EAF0E06C
:100F2000808181608083E1E2F1E080818260808362
:100F3000808181608083E0E2F1E080818160808354
:100F4000EAE7F0E080818460808380818260808332
:100F50008081816080838081806880831092C1005D
:100F60000895CF93DF9390E0FC01EE50FF4F249162
:100F7000FC01E85CFE4F8491882349F190E0880FE2
:100F8000991FFC01EE54FE4FA591B49188569E4FD7
:100F9000FC01C591D4919FB7611108C0F8948C9160
:100FA000209582238C93888182230AC0623051F479
:100FB000F8948C91322F309583238C938881822BE7
:100FC000888304C0F8948C91822B8C939FBFDF910F
:100FD000CF910895A1E21A2EAA1BBB1BFD010DC0E3
:100FE000AA1FBB1FEE1FFF1FA217B307E407F507D9
:100FF00020F0A21BB30BE40BF50B661F771F881FB5
:10100000991F1A9469F760957095809590959B014A
:10101000AC01BD01CF010895EE0FFF1F0590F491C3
:10102000E02D19940790F691E02D1994F894FFCFD4
:1010300019FCFFFF2605260526052605260526059B
:1010400026052605426173696320456E636F6465FA
:101050007220546573743A0000000000BB022A0439
:10106000100229021B029A020D0A006E616E0069CD
:0A1070006E66006F7666002E000029
:00000001FF
