:100000000C945A000C9482000C9482000C94820090
:100010000C9482000C9482000C9482000C94820058
:100020000C9482000C9482000C9482000C94820048
:100030000C9482000C9482000C9482000C94820038
:100040000C9488100C9482000C94680F0C949A0FF6
:100050000C9482000C9482000C9482000C94820018
:100060000C941F0C0C948200000000080002010098
:100070000003040700000000000000000102040863
:100080001020408001020408102001020408102002
:10009000040404040404040402020202020203032E
:1000A0000303030300000000250028002B001A0AA8
:1000B0001F0ECA0F11241FBECFEFD8E0DEBFCDBF89
:1000C00012E0A0E0B1E0ECE5F9E202C005900D928B
:1000D000A83DB107D9F727E0A8EDB2E001C01D9215
:1000E000AF32B207E1F710E0C4EBD0E004C02297D2
:1000F000FE010E946812CE3AD107C9F70E9479101A
:100100000C94AC140C940000FC01DB0182818C93F4
:10011000838111968C931197848112968C931297F8
:10012000858113968C931397868114968C931497DC
:10013000878115968C931597808516968C931697C4
:10014000818517968C9388E090E00895FC01DB018F
:100150004C9150E060E070E0428353836483758388
:1001600011968C911197582B428353836483758326
:1001700012968C911297682B428353836483758304
:1001800013968C911397782B4283538364837583E2
:1001900014964C91149750E060E070E046835783CA
:1001A0006087718715968C911597582B46835783D6
:1001B0006087718716968C911697682B46835783B4
:1001C0006087718717968C91782B46835783608759
:1001D000718788E090E0089588E091E0089586E1D5
:1001E00091E008956F927F928F929F92AF92BF920B
:1001F000CF92DF92EF92FF920F931F93CF93DF93F3
:10020000FC01DB018C9190E09383828311962C9109
:100210001197922B9383828312964D915D916D91EC
:100220007C9115975D0186E0A80EB11C8A019B01A7
:100230000A5F1F4F2F4F3F4F6501CA1ADB0AE12C9F
:10024000F12CC016D106E206F30640F4E501F99060
:100250005E01CE010297EC01F882EECFED01C40FF2
:10026000D51F1D82CD01059695838483ED01C40FB2
:10027000D51FCE80DF80E884F984465F5F4F3D0163
:10028000640E751E8A01222717FD2095322F0C0D52
:100290001D1D2E1D3F1D43018A1A9B0AA12CB12C46
:1002A00080169106A206B30640F4E30169913E016F
:1002B000CE010297EC016883EECFC40ED51E9D01DE
:1002C0002C0D3D1DC9010197EC01188241505109C7
:1002D0004A0F5B1F57834683E901088119812A81F0
:1002E0003B81D4E0CD0ED11C3D016C0C7D1CA601E0
:1002F000662757FD6095762F400F511F621F731FB1
:1003000043018A1A9B0AA12CB12C84169506A606D5
:10031000B70640F4E301F9903E01CE010297EC01EB
:10032000F882EECF0C0D1D1D9D01200F311FC9015C
:100330000197EC011882D1E0CD1AD108CA0EDB1E5C
:10034000D186C086D90111968C91119712964C9145
:10035000129750E060E070E0BA0155274427582B0F
:100360008C91482B13968C91782B42875387648706
:100370007587C8010496DF91CF911F910F91FF906F
:10038000EF90DF90CF90BF90AF909F908F907F9035
:100390006F90089587E391E0089580E591E00895D6
:1003A000AF92BF92CF92DF92EF92FF921F93CF93C3
:1003B000DF939C01FB018081D90112968C9381818E
:1003C0009281A381B4815B01C5E0AC0EB11CAC018C
:1003D000BD014B5F5F4F6F4F7F4F6501CE1ADF0A44
:1003E000E12CF12CC416D506E606F70650F4E5011B
:1003F000D9905E017E01D2E0ED1AF108E701D882C2
:10040000ECCFEF01C80FD91F1C823496E901FC83A1
:10041000EB830596DF91CF911F91FF90EF90DF90D6
:10042000CF90BF90AF90089581E791E0089584E860
:1004300091E0089585E592E0089585EA91E00895B8
:10044000FB01DC0112964C91129713963C91139785
:1004500014962C91149715968C91408331832283A6
:10046000838384E090E00895FB012181428150E084
:1004700060E070E0BA0155274427522B2081422BBF
:100480002381722BFC01428353836483758384E050
:1004900090E0089586EC91E0089587ED91E008954D
:1004A0008E549D4FFC0180810895AF92BF92CF92F0
:1004B000DF92EF92FF920F931F93CF93DF93EC01A4
:1004C0007B018A81DB018C938B8111968C93EC816B
:1004D000FD81DF010D900020E9F7CD0101976C014E
:1004E000CE1ADF0AC601A0E0B0E0FB01828393834D
:1004F000A483B5836C817D81A601C70106960E9405
:100500004513EE81FF81DF010D900020E9F7CD0159
:1005100001975C01AE1ABF0AF701EC0DFD1D8501C4
:1005200020E030E006831783208731879AE0C90EE8
:10053000D11C6E817F81A501C7018C0D9D1D0E947C
:100540004513CA0CDB1CE885F985DF010D900020FE
:10055000E9F7CD0101975C01AE1ABF0AF701EC0D76
:10056000FD1D850120E030E0008311832283338369
:1005700094E0C90ED11C68857985A501C7018C0D51
:100580009D1D0E944513AC0CBD1C3A852B859C8596
:100590008D85F701EA0DFB1D3083218392838383D0
:1005A000C5010496DF91CF911F910F91FF90EF90BD
:1005B000DF90CF90BF90AF9008950F931F93CF938C
:1005C000DF93DC01FB0112968C91129780831396C6
:1005D0008D919C911497EC0109900020E9F72197E7
:1005E000C81BD90B8E0120E030E0018312832383E6
:1005F000348313966D917C911497AE01CF010596CB
:100600000E944513CE010596DF91CF911F910F9166
:100610000895BF92CF92DF92EF92FF920F931F93B4
:10062000CF93DF93EC017B018A81DB018C931196E0
:100630001C92119712961C92129713961C92FB0112
:10064000379640E024E030E05A81C901049645170E
:10065000E0F4AF81B88524E0429FA00DB11D1124C4
:100660006C9111965C91119712963C91129713968A
:100670002C91DF0113976C9311965C9311963C9328
:1006800020839C014F5F3496DFCF4985F701E20F4D
:10069000F31F408311821282138220E03985F70113
:1006A000E80FF91F04962317B0F4AE85BF8534E038
:1006B000239FA00DB11D11246C9111965C9111978F
:1006C00012964C91129713963C916083518342830A
:1006D00033832F5FE3CF2889208311821282138214
:1006E000B12C2889B21698F54B2D50E0440F551FB8
:1006F000EB89FC89E40FF51F0190F081E02DDF010B
:100700000D900020E9F79D01215031096901CE1AB1
:10071000DF0AF701E80FF91F860120E030E00083CF
:100720001183228333838C010C5F1F4FEB89FC897B
:10073000E40FF51F60817181A601C701800F911F31
:100740000E944513C601800F911FB394CACFDF9159
:10075000CF911F910F91FF90EF90DF90CF90BF90BE
:1007600008954F925F927F928F929F92AF92BF9225
:10077000CF92DF92EF92FF920F931F93CF93DF936D
:10078000EC018B01DB01FC908A818F1550F4B4E001
:10079000FB9EB00111248F8198850E947B1298875F
:1007A0008F83FA82F8013796F12C44E050E09E01E5
:1007B0002D5F3F4F8A81BA016C5F7F4F6B01F81646
:1007C00060F5408150E060E070E0742F66275527A7
:1007D0004427DF0113978C91482B11968C91582B4D
:1007E00011968C91682B4B835C836D837E83A6016D
:1007F0006F81788584E0F89E600D711D1124D90108
:100800008D909D90AD90BC90DB018D929D92AD92AC
:10081000BC921397F3943496CDCFF801E40FF51FF3
:10082000F08089858F1550F484E0F89EB001112482
:100830008E859F850E947B129F878E879601F98601
:1008400080E0FE013A969985D801A20FB31FA90155
:100850004C5F5F4F6A01891748F511969C9111977B
:1008600012964C91129750E060E070E0BA01552763
:100870004427592B9C91492B13969C91792B4A879D
:100880005B876C877D879601AE85BF8594E0899FE5
:10089000A00DB11D112440815181628173814D935E
:1008A0005D936D937C9313978F5FCDCFFC90888978
:1008B0008F1550F46F2D70E0660F771F8B899C8920
:1008C0000E947B129C8B8B8BC601F88A712C2E01A7
:1008D00051E1450E511C2889721608F044C0F801F8
:1008E000E80FF91FC080D180E280F3800496F80100
:1008F000E80FF91FAC01662757FD6095762F4C0D68
:100900005D1D6E1D7F1D9F01201B310B4901A12C18
:10091000B12C84169506A606B70638F4B1909F014F
:1009200022503109D901BC92EECFC80ED91EF80170
:10093000EC0DFD1D319710829C0121503109200FD3
:10094000311F3A8B298BC6013B892C89E32FF22F6B
:10095000E70DF11DE70DF11DD2012D913C91318381
:1009600020837394B8CFDF91CF911F910F91FF90A7
:10097000EF90DF90CF90BF90AF909F908F907F903F
:100980005F904F900895AF92BF92CF92DF92EF9217
:10099000FF920F931F93CF93DF9300D000D01F924D
:1009A000CDB7DEB78C016B01643671053CF0FC01FC
:1009B000EE54FD4F8081882309F479C0DA01ED916E
:1009C000FC910190F081E02DB8016D5C7E4FCA0171
:1009D00009957C015801B4EDAB1ABEEFBB0A2FEFAD
:1009E000F50120832EEF3196208331968083319656
:1009F0009083890F8095319680833196C08231969D
:100A0000D08285E090E020E030E0A701495F5F4FB1
:100A10008417950750F4F801E80FF91FE45DFE4FC5
:100A20006081260F311D0196F3CFF8E0EF0EF11C27
:100A3000400F511FFA01E45DFE4F2095208329E10C
:100A4000E21621E0F206C8F46501C6018A199B0985
:100A50008E159F0584F4D80112968D919C91139761
:100A6000F60161916F01DC01ED91FC910190F08143
:100A7000E02D0995EACFC7011CC08DE892E09A836A
:100A8000898383E08B8388EF91E09D838C83D801F9
:100A9000ED91FC910190F081E02DAE014F5F5F4F31
:100AA00067E070E0C80109958FEF9FEF02C080E01A
:100AB00090E00F900F900F900F900F90DF91CF91DB
:100AC0001F910F91FF90EF90DF90CF90BF90AF906C
:100AD0000895DC01ED91FC910190F081E02D0994E5
:100AE00083E396E00C94E30D0F931F93CF93DF9372
:100AF000EC018A0183E396E00E94070EBE0183E3C6
:100B000096E00E946905B80183E396E00E946905BA
:100B100083E396E0DF91CF911F910F910C941C0E0F
:100B200041E550E00E94740566E470E080E090E0EA
:100B30000C940111CF93DF93EB01BC0183E396E0AA
:100B40000E94070EBE0183E396E00E94690583E3DD
:100B500096E0DF91CF910C941C0E0F931F93CF93CF
:100B6000DF93EC018B0140EA50E0BC010E94740568
:100B70004AEA50E0BE01CE010E94740545EA50E009
:100B8000BE01CE010E947405A801BE01CE01DF9115
:100B9000CF911F910F910C947405CF93DF93EC01CB
:100BA00061E372E085E896E00E94661062E070E022
:100BB000CE010E949A054CE850E0BE0182E090E030
:100BC000DF91CF910C9474050E947005609106012D
:100BD0007091070180E090E00E94AD0580910601D0
:100BE000909107010E94CD05809106019091070127
:100BF000049690930701809306014091E40250917E
:100C0000E5026091E6027091E70226E08091E2023F
:100C10009091E3020E94060F1092890510928805B8
:100C200010928B0510928A0510928F0510928E05F6
:100C300010928D0510928C05E4E2F5E080E090E0E2
:100C400021913191232BB1F4FC01EE0FFF1FEC5DDC
:100C5000FA4F25EB35E03183208383589F4F9093E3
:100C6000BA058093B90580EE92E09093BC0580931D
:100C7000BB05089501968931910511F708950F93E9
:100C80001F93CF93DF93CDB7DEB72A970FB6F894B3
:100C9000DEBF0FBECDBF8C0185E792E09A838983CA
:100CA0001B821C821D821E821F82188619861A864C
:100CB000D801ED91FC910190F081E02DAE014F5FE4
:100CC0005F4F6AE070E0C80109950E94D210F801F8
:100CD00060877187828793872A960FB6F894DEBF64
:100CE0000FBECDBFDF91CF911F910F9108954F920D
:100CF0005F926F927F928F929F92AF92BF92CF92AC
:100D0000DF92EF92FF920F931F93CF93DF93CDB7B4
:100D1000DEB72E970FB6F894DEBF0FBECDBF8C01A5
:100D200081E892E09A8389831C821B8280E392E0AF
:100D30009E838D8398878F839A8789871B861C86DD
:100D40001D861E86580182E3A80EB11C780198E129
:100D5000492E55245394612C712C6701ACEBCA1AAF
:100D6000ADEFDA0AD601ED91FC913097B9F18481AB
:100D700095819C838B83808191819E838D838281E9
:100D80009381DC01ED91FC910480F581E02D0995C2
:100D900098878F83D601ED91FC9182819381DC014C
:100DA000ED91FC910680F781E02D09959A8789875E
:100DB0004B865C866D867E86F80180819181F60186
:100DC000A081B18118966D917C911997DC01ED910C
:100DD000FC91AE014F5F5F4FC8010995B2E0EB0E89
:100DE000F11CEA14FB0409F0B8CF780188E1482E21
:100DF00055245394612C712C6701EAE8CE1AEDEF6B
:100E0000DE0AF601A081B1811097E1F112968D9171
:100E10009C9113979C838B8314968D919C9115972D
:100E20009E838D83ED91FC9111970480F581E02DD7
:100E3000CD01099598878F83D6018D919C91DC0116
:100E4000ED91FC910680F781E02D09959A878987BD
:100E50004B865C866D867E86D801ED91FC91808004
:100E60009180F60180819181DC01ED91FC910280FD
:100E7000F381E02D0995AE014F5F5F4FBC01C801C2
:100E8000F4010995F2E0EF0EF11CEA14FB0409F0FD
:100E9000B3CFF801EE54FD4F81E080832E960FB65C
:100EA000F894DEBF0FBECDBFDF91CF911F910F91A0
:100EB000FF90EF90DF90CF90BF90AF909F908F907A
:100EC0007F906F905F904F9008958F929F92AF9216
:100ED000BF92CF92DF92EF92FF920F931F93CF9327
:100EE000DF93CDB7DEB72A970FB6F894DEBF0FBEFB
:100EF000CDBF8C015B0185E792E09A8389831B82D9
:100F00001C821D821E821F82188619861A860E94E4
:100F1000D2106B017C01F80180859185A285B38593
:100F2000C81AD90AEA0AFB0AB501CE0101960E9445
:100F3000A60028EE822E23E0922EA12CB12CC70110
:100F4000B601A50194010E94251269017A019B0155
:100F5000AC018B819C81AD81BE818C0D9D1DAE1D30
:100F6000BF1D8B839C83AD83BE8360E472E48FE0FE
:100F700090E00E940112CF80D884E984FA84C60EE2
:100F8000D71EE81EF91ECF82D886E986FA860E940F
:100F9000D210CB80DC80ED80FE80F1E0CF1AD1084A
:100FA000E108F108A50194010E94251249015A01A6
:100FB0009B01AC01C818D908EA08FB08F801C486EF
:100FC000D586E686F786CF80D884E984FA84F6E36E
:100FD000DF1AF5E6EF0AF4ECFF0A60E472E48FE052
:100FE00090E00E940112C61AD70AE80AF90AF8012D
:100FF000C08AD18AE28AF38AB801605F7F4FC80154
:101000000C960E94130B0E94D210F801E954FD4F78
:1010100060837183828393832A960FB6F894DEBF30
:101020000FBECDBFDF91CF911F910F91FF90EF9039
:10103000DF90CF90BF90AF909F908F9008952F92A8
:101040003F924F925F926F927F928F929F92AF9258
:10105000BF92CF92DF92EF92FF920F931F93CF93A5
:10106000DF93CDB7DEB760970FB6F894DEBF0FBE43
:10107000CDBF4C010E94D2106B017C019401295418
:101080003D4F3E832D83F90180819181A281B381FF
:10109000A7019601281B390B4A0B5B0BDA01C9012A
:1010A000893F9A42A105B10510F035971082A4013D
:1010B00048555D4F588B4F87DA018D919C91892B54
:1010C00079F0F401E554FD4F80819181A281B381D3
:1010D0008C159D05AE05BF0518F4FA01118210822A
:1010E0003401F0E56F1AFDEF7F0A940124553D4F5E
:1010F0003A832983A4014E545D4F58874F832C5E59
:101100003F4F3C872B87435F5F4F5E874D8784014E
:1011100006551D4F1601270154E1250E311C411CB7
:10112000511C540184E1A80EB11C940122553D4F7D
:101130003C832B83A40145545D4F5A874987D401D2
:1011400012968D919C911397DC01ED91FC91068094
:10115000F781E02D09959C0197FD2DC1F301808158
:101160009181820F931F91838083AF85B8894D91C0
:101170005C9147305105E1F4EB81FC8180819181E4
:10118000AC014F5F5F4F51834083F401E80FF91FBB
:10119000248BD8018D919C91119701978D939C93ED
:1011A000892B09F0BECF28E030E0EF85F88987C0B1
:1011B0004115510519F52F3F310569F481E090E0A3
:1011C000AF85B8898D939C93E985FA852082318219
:1011D00042825382B4CF0E94D2106C197D098E09CD
:1011E0009F09663071058105910508F49ACFF401D5
:1011F000EE54FD4F10828EEF9FEF03C14130510539
:1012000099F42E3F310519F482E090E02FC0EF856C
:10121000F88911821082AF81B8858C91811181CFBC
:10122000C4010E943F068BCF4230510589F4F8017A
:1012300031832083AB81BC811D921C9283E090E0BE
:10124000EF85F88991838083D3012D933C9377CFE9
:101250004330510581F4322F2227F801808191819A
:10126000820F931F9183808384E090E0AF85B889DB
:101270008D939C9364CF4430510599F460E071E004
:101280000E9411128F3F910539F485E090E0EF85BF
:10129000F8899183808353CFAF85B8891D921C92C2
:1012A0004ECF4530510571F4E981FA8131832083B5
:1012B00086E090E0AF85B8898D939C93F3013183EC
:1012C00020833DCF46305105D1F4322F2227A9810A
:1012D000BA818D919C911197820F931F8D939C934E
:1012E00027E030E0EF85F88931832083D8018D91A4
:1012F0009C91892B09F015CF28E030E0E0CF4830F1
:10130000510509F00ECFAF85B8891D921C9260E09F
:1013100071E00E9411128F3F910509F002CFA9815F
:10132000BA81ED91FC913097B1F4C4010E943F065F
:10133000C4010E947706F401ED54FD4FC082D182B2
:10134000E282F382ED81FE81C082D182E282F38269
:101350008FEF9FEF56C0EA30F10529F4B501C401C3
:101360000E946507ECCEE630F10551F4B5018B859E
:101370009C850E94B10381E0AD85BE858C93DFCE54
:10138000EB30F10521F4EF81F8851082D8CEE952D7
:10139000FF4FEE0FFF1FE80DF91D8081918100972F
:1013A00009F4BFCEDC01ED91FC910190F081E02DBC
:1013B000B5010995C4CEF401EE54FD4F8081882318
:1013C000F1F084010D541D4FF80180819181A281BB
:1013D000B381A7019601281B390B4A0B5B0BDA017D
:1013E000C901853C9940A105B10548F0C4010E949E
:1013F0003F06D801CD92DD92ED92FC92139780E0EA
:1014000090E060960FB6F894DEBF0FBECDBFDF91BF
:10141000CF911F910F91FF90EF90DF90CF90BF90F1
:10142000AF909F908F907F906F905F904F903F9084
:101430002F90089585EA92E09093C0058093BF05B0
:101440001092C1051092C2051092C3051092C405F6
:1014500087E492E09093B6058093B5058FEB95E015
:101460009093B8058093B7051092BE051092BD0504
:1014700081EB92E09093E1028093E00285E896E0B0
:101480009093E3028093E20280E091EEA0E0B0E06E
:101490008093E4029093E502A093E602B093E70202
:1014A0001092920589E992E09093A1058093A0059E
:1014B0001092A2051092A8051092A7051092A905F6
:1014C0001092AF051092AE051092B0051092B405BF
:1014D0001092B305E4E2F5E01192119285E0E63551
:1014E000F807D1F7E6E5F5E01192119285E0E838CA
:1014F000F807D1F7E4EFF2E0119284E0EC30F8075E
:10150000D9F7ECE0F4E0119285E0E432F807D9F77E
:101510000895CF93DF93AB01BC0183E396E00E9473
:10152000FA0D83E396E00E944C0D0297D4F362E338
:1015300070E080E090E00E94011183E396E00E9459
:10154000540DD82F80E0C82F83E396E00E94540DFD
:101550008C0F9D1FDF91CF9108950F931F930E94D1
:10156000D2100091D8021091D9022091DA02309164
:10157000DB02061717072807390708F04EC06091ED
:1015800006017091070180E090E00E94900562E002
:1015900070E080910601909107010E949A0562E037
:1015A00070E080910601909107010E94890ABC01B8
:1015B000882777FD8095982F0E94C6116093DC02E2
:1015C0007093DD028093DE029093DF026093C10589
:1015D0007093C2058093C3059093C4058091BB05A9
:1015E0009091BC05DC01ED91FC916091B905709181
:1015F000BA050190F081E02D4FEB55E009950E946E
:10160000D2106C507E4F8F4F9F4F6093D8027093D3
:10161000D9028093DA029093DB0280EE92E01F9170
:101620000F910C941F08CF92DF92EF92FF920F93CD
:101630001F93CF93DF938C01EB01688179818A81BD
:101640009B8120E03AEC4AE95BE30E942512F80115
:10165000C080D180E280F380C20ED31EE41EF51E4E
:10166000C082D182E282F382688379838A839B83FA
:10167000DF91CF911F910F91FF90EF90DF90CF906E
:1016800008951092320681E08093300610922F0662
:1016900061E082E10E948D1161E083E10E948D1181
:1016A000E9EBF0E080818E7F808380818D7F808375
:1016B00088E48093B80085E48093BC0008954132AB
:1016C00008F03FC0909132069111FCCF91E09093C9
:1016D0003206209330062FEF2093C50510920A069C
:1016E000240F209309069093310690913106880FBC
:1016F000892B8093310680912F06813041F410921E
:101700002F06809131068093BB0085EC01C085EEE9
:101710008093BC00809132068130E1F380910A060B
:10172000841710F440910A062BE036E0FB01D90142
:101730008A2F821B841718F48D918193F9CF842FFF
:10174000089580E008950F93413208F046C09091CB
:1017500032069111FCCF92E090933206009330064E
:101760009FEF9093C50510920A0640930906FB016E
:101770006BE076E0DB019A2F961B941718F4919199
:101780009D93F9CF1092310690913106880F892BE5
:101790008093310680912F06813041F410922F06FC
:1017A000809131068093BB0085EC01C085EE80936B
:1017B000BC00222321F0809132068230E1F3809137
:1017C000C5058F3F61F08091C505803251F0809151
:1017D000C505803341F483E007C081E005C080E0A7
:1017E00003C082E001C084E00F910895613298F453
:1017F00020913206243089F46093E705FC0189EEDC
:1018000095E0DC012A2F281B261718F421912D932F
:10181000F9CF80E0089581E0089582E0089585ED94
:101820008093BC008091BC0084FDFCCF10923206F6
:10183000089585EC8093BC001092320608951F92A3
:101840000F920FB60F9211242F933F934F935F93F4
:101850006F937F938F939F93AF93BF93EF93FF9378
:101860008091B900887F803609F49CC068F5883281
:1018700009F45BC090F4803109F454C038F4882333
:1018800009F4F5C0883009F44DC0F5C0883109F479
:101890004CC0803209F45DC0EEC0803409F468C0E9
:1018A00048F4803309F455C0883309F0E4C08093CC
:1018B000C505A8C0803509F44FC0883509F45DC05E
:1018C000883409F0D8C0D5C0883909F4C6C0A8F456
:1018D000883709F467C038F4883609F463C0803764
:1018E00009F460C0C8C0883809F4B7C0803909F469
:1018F0005FC0803809F0BFC05BC0803B09F485C081
:1019000038F4803A09F466C0883A09F47EC0B3C05E
:10191000803C09F4A6C0883C09F4A3C0883B09F4C4
:1019200089C0A9C08091310610C090910A068091AB
:101930000906981770F5E0910A0681E08E0F8093F2
:101940000A06F0E0E55FF94F80818093BB0085ECEB
:1019500085C08093C5058DC0E0910A0681E08E0F99
:1019600080930A068091BB00F0E0E55FF94F808329
:1019700090910A06809109066DC0E0910A0681E007
:101980008E0F80930A068091BB00F0E0E55FF94F6F
:1019900080838091300681116CC081E080932F0696
:1019A00084EA60C083E0809332061092C605CFCFF0
:1019B0008091C605803208F050C0E091C60581E0F4
:1019C0008E0F8093C6058091BB00F0E0E953FA4F7B
:1019D0008083BDCF8091C605803230F4E091C6058A
:1019E000F0E0E953FA4F10820E940F0C6091C60597
:1019F00070E0E0912B06F0912C0687EC95E00995BC
:101A00001092C6050E94190C36C084E080933206FD
:101A10001092E8051092E705E0912D06F0912E0650
:101A200009958091E705811105C081E08093E70564
:101A30001092E905E091E80581E08E0F8093E805BA
:101A4000F0E0E751FA4F80818093BB009091E80568
:101A50008091E705981708F47ACF85E88093BC0059
:101A60000AC085EC8093BC001092320604C010922C
:101A7000C5050E940F0CFF91EF91BF91AF919F910F
:101A80008F917F916F915F914F913F912F910F9027
:101A90000FBE0F901F9018958091630690E02091E3
:101AA0006406821B91090895209164068091630663
:101AB000281750F4E22FF0E0EB59F94F808190E0C5
:101AC0002F5F2093640608958FEF9FEF0895E091B4
:101AD000640680916306E81730F4F0E0EB59F94FA3
:101AE000808190E008958FEF9FEF08950895CF9241
:101AF000DF92EF92FF920F931F93CF93DF937C01BE
:101B0000CB018A0120913F06222389F0EB016B0172
:101B1000C40ED51ECC15DD0569F06991D701ED9194
:101B2000FC910190F081E02DC7010995F3CF642F5E
:101B30000E94F60BC801DF91CF911F910F91FF908A
:101B4000EF90DF90CF900895CF93DF931F92CDB7A2
:101B5000DEB7698320913F062223D1F02091400611
:101B6000203240F021E030E0FC013383228380E02A
:101B700090E015C080914106E82FF0E0EE5BF94F50
:101B8000998190838F5F809341068093400605C0C2
:101B900061E0CE0101960E94F60B81E090E00F908B
:101BA000DF91CF910895FC011382128248EE53E039
:101BB00060E070E044835583668377838BEB92E02B
:101BC00091838083089510926406109263061092A8
:101BD0004106109240060C94410B862F413208F0CA
:101BE00040E265E676E00E945F0B10926406809307
:101BF0006306089521E00C94ED0D81E080933F068B
:101C000060936206109241061092400608950C946B
:101C1000FD0D0F93062F21E04091400662E476E02F
:101C2000809162060E94A30B10924106109240061A
:101C300010923F060F91089561E00C94090E83E322
:101C400096E00C94D30DFC01818D228D90E0805C98
:101C50009F4F821B91098F7399270895FC01918DE5
:101C6000828D981731F0828DE80FF11D858D90E0FF
:101C700008958FEF9FEF0895FC01918D828D981745
:101C800061F0828DDF01A80FB11D5D968C91928D60
:101C90009F5F9F73928F90E008958FEF9FEF08955D
:101CA00080EC9FE0892B49F080E090E0892B29F0BF
:101CB0000E94C00F81110C9400000895FC01848DD6
:101CC000DF01A80FB11DA35ABF4F2C91848D90E066
:101CD00001968F739927848FA689B7892C93A08941
:101CE000B1898C9180648C93938D848D981306C0F8
:101CF0000288F389E02D80818F7D80830895CF93C2
:101D0000DF93EC01888D8823C9F0EA89FB89808103
:101D100085FD05C0A889B9898C9186FD0FC00FB6D5
:101D200007FCF5CF808185FFF2CFA889B9898C9116
:101D300085FFEDCFCE010E945E0EE7CFDF91CF9100
:101D40000895CF92DF92FF920F931F93CF93DF936B
:101D50001F92CDB7DEB76C01DC015B969C915B975F
:101D60005C968C915C97981307C05096ED91FC910E
:101D70005197808185FD32C0F601038D10E00F5F21
:101D80001F4F0F731127F02EF601848DF81211C02A
:101D90000FB607FCF9CFD6015096ED91FC91519703
:101DA000808185FFF1CFC60169830E945E0E698143
:101DB000EBCF838DE80FF11DE35AFF4F6083D6010F
:101DC0005B960C935B975296ED91FC9153978081B3
:101DD0008062808381E058968C930DC0D601569620
:101DE000ED91FC91579760835096ED91FC9151973E
:101DF00080818064808381E090E00F90DF91CF91BB
:101E00001F910F91FF90DF90CF900895BF92CF92D6
:101E1000DF92EF92FF92CF93DF93EC016A017B0197
:101E2000B22EE889F98982E08083411581EE580756
:101E300061057105A1F060E079E08DE390E0A70114
:101E400096010E94251221503109410951095695E8
:101E5000479537952795211580E1380798F0E8894F
:101E6000F989108260E874E88EE190E0A70196019C
:101E70000E94251221503109410951095695479573
:101E800037952795EC85FD853083EE85FF8520838A
:101E9000188EEC89FD89B082EA89FB898081806196
:101EA0008083EA89FB89808188608083EA89FB8955
:101EB000808180688083EA89FB8980818F7D80832F
:101EC000DF91CF91FF90EF90DF90CF90BF9008957A
:101ED0001F920F920FB60F9211242F938F939F93FF
:101EE000EF93FF93E0919506F09196068081E09143
:101EF0009B06F0919C0682FD12C0908180919E0607
:101F00008F5F8F7320919F06821751F0E0919E069C
:101F1000F0E0EB57F94F958F80939E0601C08081CA
:101F2000FF91EF919F918F912F910F900FBE0F9086
:101F30001F9018951F920F920FB60F9211242F9396
:101F40003F934F935F936F937F938F939F93AF9341
:101F5000BF93EF93FF9385E896E00E945E0EFF919A
:101F6000EF91BF91AF919F918F917F916F915F9111
:101F70004F913F912F910F900FBE0F901F9018958A
:101F800085E896E00E94230E21E0892B09F420E0E9
:101F9000822F0895109288061092870688EE93E0AB
:101FA000A0E0B0E08093890690938A06A0938B0608
:101FB000B0938C068BEC92E0909386068093850616
:101FC00085EC90E0909392068093910684EC90E0EB
:101FD000909394068093930680EC90E090939606FD
:101FE0008093950681EC90E09093980680939706F5
:101FF00082EC90E090939A068093990686EC90E0AC
:1020000090939C0680939B0610929E0610929F06CA
:102010001092A0061092A1060895CF92DF92EF923F
:10202000FF920F931F93CF93DF936C017A01EB0123
:10203000E60EF71E00E010E0CE15DF0561F06991B5
:10204000D601ED91FC910190F081E02DC60109953A
:10205000080F191FF1CFC801DF91CF911F910F9188
:10206000FF90EF90DF90CF9008956115710581F09A
:10207000DB010D900020E9F7AD0141505109461BED
:10208000570BDC01ED91FC910280F381E02D099466
:1020900080E090E00895DC01ED91FC910190F081E9
:1020A000E02D09940F931F93CF93DF93EC016DE024
:1020B0000E944B108C016AE0CE010E944B10800FF1
:1020C000911FDF91CF911F910F9108950F931F934F
:1020D000CF93DF93EC010E9435108C01CE010E945A
:1020E0005210800F911FDF91CF911F910F91089592
:1020F00008950E9429110E9478100E94E405C0E50D
:10210000DEE00E94AD0A2097E1F30E94500EF9CF65
:102110001F920F920FB60F9211242F933F938F931C
:102120009F93AF93BF938091230790912407A09131
:102130002507B09126073091220723E0230F2D3782
:1021400020F40196A11DB11D05C026E8230F0296BB
:10215000A11DB11D2093220780932307909324078C
:10216000A0932507B0932607809127079091280711
:10217000A0912907B0912A070196A11DB11D809356
:10218000270790932807A0932907B0932A07BF91A8
:10219000AF919F918F913F912F910F900FBE0F9014
:1021A0001F9018952FB7F89460912307709124071A
:1021B00080912507909126072FBF08953FB7F89487
:1021C0008091270790912807A0912907B0912A07AD
:1021D00026B5A89B05C02F3F19F00196A11DB11D82
:1021E0003FBF6627782F892F9A2F620F711D811D9F
:1021F000911D42E0660F771F881F991F4A95D1F7FE
:102200000895CF92DF92EF92FF92CF93DF936B010D
:102210007C010E94DE10EB01C114D104E104F10441
:1022200089F00E94C3110E94DE106C1B7D0B683E7A
:10223000734090F381E0C81AD108E108F108C85151
:10224000DC4FEACFDF91CF91FF90EF90DF90CF90FE
:102250000895789484B5826084BD84B5816084BD1E
:1022600085B5826085BD85B5816085BDEEE6F0E00F
:10227000808181608083E1E8F0E01082808182606B
:102280008083808181608083E0E8F0E080818160EC
:102290008083E1EBF0E0808184608083E0EBF0E01C
:1022A000808181608083EAE7F0E0808184608083C0
:1022B000808182608083808181608083808180686A
:1022C00080831092C1000895833081F028F481301A
:1022D00099F08230A1F008958730A9F08830B9F0E4
:1022E0008430D1F4809180008F7D03C08091800084
:1022F0008F7780938000089584B58F7702C084B56E
:102300008F7D84BD08958091B0008F7703C0809148
:10231000B0008F7D8093B00008950F931F93CF93EB
:10232000DF931F92CDB7DEB7282F30E0F901E859CF
:10233000FF4F8491F901E458FF4F1491F901E057E0
:10234000FF4F04910023C9F0882321F069830E9484
:1023500064116981E02FF0E0EE0FFF1FEC55FF4F95
:10236000A591B4919FB7F8948C91611103C0109519
:10237000812301C0812B8C939FBF0F90DF91CF9160
:102380001F910F9108950895E89409C097FB3EF4BA
:1023900090958095709561957F4F8F4F9F4F9923B2
:1023A000A9F0F92F96E9BB279395F6958795779530
:1023B0006795B795F111F8CFFAF4BB0F11F460FFF0
:1023C0001BC06F5F7F4F8F4F9F4F16C0882311F048
:1023D00096E911C0772321F09EE8872F762F05C05C
:1023E000662371F096E8862F70E060E02AF09A95F7
:1023F000660F771F881FDAF7880F9695879597F9EC
:102400000895DB018F939F930E944712BF91AF9174
:10241000A29F800D911DA39F900DB29F900D11243E
:10242000089597FB072E16F4009407D077FD09D086
:102430000E94521207FC05D03EF4909581959F4F63
:102440000895709561957F4F0895A1E21A2EAA1BF9
:10245000BB1BFD010DC0AA1FBB1FEE1FFF1FA21754
:10246000B307E407F50720F0A21BB30BE40BF50B51
:10247000661F771F881F991F1A9469F760957095DA
:10248000809590959B01AC01BD01CF0108950E94FC
:102490006C12A59F900DB49F900DA49F800D911D6F
:1024A00011240895AA1BBB1B51E107C0AA1FBB1F23
:1024B000A617B70710F0A61BB70B881F991F5A95D0
:1024C000A9F780959095BC01CD010895EE0FFF1FEF
:1024D0000590F491E02D0994A29FB001B39FC00133
:1024E000A39F700D811D1124911DB29F700D811D40
:1024F0001124911D0895A0E0B0E0E1E8F2E10C9410
:102500007914EC01CB01209719F40E944E13B8C046
:10251000FE01E60FF71F9E0122503109E217F30773
:1025200008F4ACC0D9010D911C911197061717073B
:10253000B8F00530110508F49FC0A80144505109B6
:102540004617570708F498C002501109061B170BCD
:10255000019311936D937C93CF010E94E6138CC07D
:102560005B01A01AB10A4E01800E911EA0912D07A9
:10257000B0912E07612C712C60E070E0109709F487
:1025800049C0A815B905C9F5ED90FC9011976701F0
:1025900042E0C40ED11CCA14DB0478F147018A184A
:1025A0009B08640142E0C40ED11C1296BC901297A5
:1025B0001396AC91B5E0CB16D10440F0B282A38360
:1025C00091828082D9018D939C9309C00E5F1F4F29
:1025D0000E0D1F1DF90111830083EB2DFA2F6115DC
:1025E000710531F0DB011396FC93EE93129744C012
:1025F000F0932E07E0932D073FC06D917C911197CA
:102600006616770608F43B01BD0112960D90BC9149
:10261000A02DB4CF60912B0770912C076815790518
:10262000E9F468167906D0F4409100015091010157
:102630004115510541F44DB75EB7609104017091A9
:102640000501461B570BE417F507C0F4F0932C0760
:10265000E0932B07F901918380830EC00E944E13F3
:102660007C01009759F0A801BE010E944513CE01DC
:102670000E94E613C70104C0CE0102C080E090E0D2
:10268000CDB7DEB7EEE00C949514FB01DC0102C07F
:1026900001900D9241505040D8F70895CF93DF93A9
:1026A0008230910510F482E090E0E0912D07F091E6
:1026B0002E0720E030E0A0E0B0E0309739F1408113
:1026C000518148175907B8F04817590771F48281AA
:1026D0009381109729F013969C938E9312972CC098
:1026E00090932E0780932D0727C02115310531F0D7
:1026F0004217530718F0A901DB0101C0EF019A014D
:10270000BD01DF010280F381E02DD7CF2115310516
:10271000F9F0281B390B2430310580F48A819B8124
:102720006115710521F0FB019383828304C09093AE
:102730002E0780932D07FE01329644C0FE01E20F62
:10274000F31F8193919322503109398328833AC032
:1027500020912B0730912C07232B41F4209102016B
:102760003091030130932C0720932B072091000117
:10277000309101012115310541F42DB73EB740914B
:10278000040150910501241B350BE0912B07F091BA
:102790002C07E217F307A0F42E1B3F0B281739076D
:1027A00078F0AC014E5F5F4F2417350748F04E0FAD
:1027B0005F1F50932C0740932B078193919302C086
:1027C000E0E0F0E0CF01DF91CF910895CF93DF9368
:1027D000009709F487C0FC01329713821282C091DE
:1027E0002D07D0912E07209781F420813181280F69
:1027F000391F80912B0790912C078217930779F549
:10280000F0932C07E0932B076DC0DE0120E030E051
:10281000AE17BF0750F412964D915C9113979D012E
:102820004115510509F1DA01F3CFB383A283408149
:102830005181840F951F8A179B0771F48D919C918C
:102840001197840F951F02969183808312968D9124
:102850009C911397938382832115310529F4F0937A
:102860002E07E0932D073EC0D9011396FC93EE93FB
:1028700012974D915D91A40FB51FEA17FB0779F4EC
:1028800080819181840F951F0296D90111969C93A6
:102890008E938281938113969C938E931297E0E09E
:1028A000F0E08A819B81009719F0FE01EC01F9CFDD
:1028B000CE01029628813981820F931F20912B0728
:1028C00030912C072817390769F4309729F41092B2
:1028D0002E0710922D0702C013821282D0932C076C
:1028E000C0932B07DF91CF9108952F923F924F9283
:1028F0005F926F927F928F929F92AF92BF92CF9290
:10290000DF92EF92FF920F931F93CF93DF93CDB798
:10291000DEB7CA1BDB0B0FB6F894DEBF0FBECDBF10
:1029200009942A88398848885F846E847D848C84E1
:102930009B84AA84B984C884DF80EE80FD800C81EA
:102940001B81AA81B981CE0FD11D0FB6F894DEBFCD
:0C2950000FBECDBFED010895F894FFCF3D
:10295C0000002F078000F8007374645F6D73677359
:10296C002F54696D650063643731363663373463D1
:10297C003535326333313166626363326665356196
:10298C0037626332383900726F7373657269616CC8
:10299C005F6D7367732F546F706963496E666F0058
:1029AC0030616435316638386663343438393266B0
:1029BC00386331303638343037373634363030359A
:1029CC0000726F7373657269616C5F6D7367732FDF
:1029DC004C6F6700313161626437333163323539A2
:1029EC0033333236316364363138336264313264B6
:1029FC0036323935003966306539386264613635BE
:102A0C00393831393836646466353361666137611B
:102A1C003430653439007374645F6D7367732F469B
:102A2C006C6F6174333200373366636266343662BE
:102A3C0034393139316536373239303865353038DB
:102A4C0034326138336434004D65737361676520CB
:102A5C0066726F6D206465766963652064726F7051
:102A6C007065643A206D657373616765206C617283
:102A7C00676572207468616E206275666665722E79
:102A8C000053657474696E67206D6178696D756D3E
:102A9C002072616E67650061726475696E6F2F7369
:102AAC006F6E617200726F7373657269616C5F6DCA
:102ABC007367732F52657175657374506172616DB4
:102ACC0000000000008400A600EC00EF00000000F5
:102ADC00005502F200CA01CD0100000000DD02D059
:102AEC000114021702000000000903B1031A021DB1
:102AFC000200000000200234024A024D02000000D5
:102B0C0000C3041F08500200000000A40D770D4CF8
:102B1C000D540D670D760D00000000A10E0D102355
:082B2C000E3C0E2E0E7F0E0080
:00000001FF
